{
  "_format": "hh-sol-artifact-1",
  "contractName": "Bridge",
  "sourceName": "contracts/Bridge.sol",
  "abi": [
    {
      "inputs": [
        {
          "internalType": "address",
          "name": "trustedSigner",
          "type": "address"
        },
        {
          "internalType": "uint256",
          "name": "serviceFee",
          "type": "uint256"
        }
      ],
      "stateMutability": "nonpayable",
      "type": "constructor"
    },
    {
      "anonymous": false,
      "inputs": [
        {
          "indexed": false,
          "internalType": "address",
          "name": "wrappedToken",
          "type": "address"
        },
        {
          "indexed": false,
          "internalType": "uint256",
          "name": "amount",
          "type": "uint256"
        },
        {
          "indexed": false,
          "internalType": "address",
          "name": "receiver",
          "type": "address"
        }
      ],
      "name": "Burn",
      "type": "event"
    },
    {
      "anonymous": false,
      "inputs": [
        {
          "indexed": false,
          "internalType": "uint16",
          "name": "targetChain",
          "type": "uint16"
        },
        {
          "indexed": false,
          "internalType": "address",
          "name": "token",
          "type": "address"
        },
        {
          "indexed": false,
          "internalType": "address",
          "name": "receiver",
          "type": "address"
        },
        {
          "indexed": false,
          "internalType": "uint256",
          "name": "amount",
          "type": "uint256"
        },
        {
          "indexed": false,
          "internalType": "uint256",
          "name": "serviceFee",
          "type": "uint256"
        }
      ],
      "name": "Lock",
      "type": "event"
    },
    {
      "anonymous": false,
      "inputs": [
        {
          "indexed": false,
          "internalType": "address",
          "name": "wrappedToken",
          "type": "address"
        },
        {
          "indexed": false,
          "internalType": "uint256",
          "name": "amount",
          "type": "uint256"
        },
        {
          "indexed": false,
          "internalType": "address",
          "name": "receiver",
          "type": "address"
        }
      ],
      "name": "Mint",
      "type": "event"
    },
    {
      "anonymous": false,
      "inputs": [
        {
          "indexed": false,
          "internalType": "uint256",
          "name": "sourceChain",
          "type": "uint256"
        },
        {
          "indexed": false,
          "internalType": "address",
          "name": "token",
          "type": "address"
        },
        {
          "indexed": false,
          "internalType": "uint256",
          "name": "amount",
          "type": "uint256"
        },
        {
          "indexed": false,
          "internalType": "address",
          "name": "receiver",
          "type": "address"
        }
      ],
      "name": "Release",
      "type": "event"
    },
    {
      "anonymous": false,
      "inputs": [
        {
          "indexed": false,
          "internalType": "uint16",
          "name": "sourceChain",
          "type": "uint16"
        },
        {
          "indexed": false,
          "internalType": "address",
          "name": "token",
          "type": "address"
        },
        {
          "indexed": false,
          "internalType": "address",
          "name": "wrappedToken",
          "type": "address"
        }
      ],
      "name": "WrappedTokenDeployed",
      "type": "event"
    },
    {
      "stateMutability": "payable",
      "type": "fallback"
    },
    {
      "inputs": [
        {
          "internalType": "uint16",
          "name": "sourceChain",
          "type": "uint16"
        },
        {
          "internalType": "address",
          "name": "wrappedToken",
          "type": "address"
        },
        {
          "internalType": "uint256",
          "name": "amount",
          "type": "uint256"
        },
        {
          "internalType": "address",
          "name": "receiver",
          "type": "address"
        }
      ],
      "name": "burn",
      "outputs": [],
      "stateMutability": "nonpayable",
      "type": "function"
    },
    {
      "inputs": [
        {
          "internalType": "uint16",
          "name": "targetChain",
          "type": "uint16"
        },
        {
          "internalType": "address",
          "name": "token",
          "type": "address"
        },
        {
          "internalType": "uint256",
          "name": "amount",
          "type": "uint256"
        }
      ],
      "name": "lock",
      "outputs": [],
      "stateMutability": "payable",
      "type": "function"
    },
    {
      "inputs": [
        {
          "components": [
            {
              "internalType": "uint16",
              "name": "sourceChain",
              "type": "uint16"
            },
            {
              "internalType": "address",
              "name": "token",
              "type": "address"
            },
            {
              "internalType": "uint256",
              "name": "amount",
              "type": "uint256"
            },
            {
              "internalType": "address",
              "name": "receiver",
              "type": "address"
            },
            {
              "internalType": "string",
              "name": "wrappedTokenName",
              "type": "string"
            },
            {
              "internalType": "string",
              "name": "wrappedTokenSymbol",
              "type": "string"
            },
            {
              "internalType": "bytes",
              "name": "txHash",
              "type": "bytes"
            },
            {
              "internalType": "bytes",
              "name": "txSigned",
              "type": "bytes"
            }
          ],
          "internalType": "struct Structs.MintInput",
          "name": "args",
          "type": "tuple"
        }
      ],
      "name": "mint",
      "outputs": [],
      "stateMutability": "nonpayable",
      "type": "function"
    },
    {
      "inputs": [
        {
          "components": [
            {
              "internalType": "uint16",
              "name": "sourceChain",
              "type": "uint16"
            },
            {
              "internalType": "address",
              "name": "token",
              "type": "address"
            },
            {
              "internalType": "uint256",
              "name": "amount",
              "type": "uint256"
            },
            {
              "internalType": "address",
              "name": "receiver",
              "type": "address"
            },
            {
              "internalType": "bytes",
              "name": "txHash",
              "type": "bytes"
            },
            {
              "internalType": "bytes",
              "name": "txSigned",
              "type": "bytes"
            }
          ],
          "internalType": "struct Structs.ReleaseInput",
          "name": "args",
          "type": "tuple"
        }
      ],
      "name": "release",
      "outputs": [],
      "stateMutability": "nonpayable",
      "type": "function"
    },
    {
      "inputs": [],
      "name": "wrappedTokens",
      "outputs": [
        {
          "components": [
            {
              "internalType": "string",
              "name": "name",
              "type": "string"
            },
            {
              "internalType": "string",
              "name": "symbol",
              "type": "string"
            },
            {
              "internalType": "uint8",
              "name": "decimals",
              "type": "uint8"
            },
            {
              "internalType": "address",
              "name": "wrappedToken",
              "type": "address"
            },
            {
              "internalType": "address",
              "name": "token",
              "type": "address"
            },
            {
              "internalType": "uint16",
              "name": "sourceChain",
              "type": "uint16"
            }
          ],
          "internalType": "struct Structs.WrappedToken[]",
          "name": "",
          "type": "tuple[]"
        }
      ],
      "stateMutability": "view",
      "type": "function"
    },
    {
      "stateMutability": "payable",
      "type": "receive"
    }
  ],
  "bytecode": "0x608060405234801561001057600080fd5b5060405161395e38038061395e83398101604081905261002f91610058565b600380546001600160a01b0319166001600160a01b039390931692909217909155600455610090565b6000806040838503121561006a578182fd5b82516001600160a01b0381168114610080578283fd5b6020939093015192949293505050565b6138bf8061009f6000396000f3fe608060405260043610620000555760003560e01c80637f5a167114620000c7578063a8591ba814620000ee578063cdeb0f471462000105578063d43bec461462000135578063fefc6636146200015a5762000093565b36620000935760405162461bcd60e51b815260206004820152600860248201526714995d995c9d195960c21b60448201526064015b60405180910390fd5b60405162461bcd60e51b815260206004820152600860248201526714995d995c9d195960c21b60448201526064016200008a565b348015620000d457600080fd5b50620000ec620000e636600462001553565b6200017f565b005b620000ec620000ff36600462001754565b620005b6565b3480156200011257600080fd5b506200011d62000726565b6040516200012c91906200185f565b60405180910390f35b3480156200014257600080fd5b50620000ec620001543660046200167a565b62000902565b3480156200016757600080fd5b50620000ec6200017936600462001797565b62000d8a565b60c081015160e08201516040516336e7a99f60e01b815260009073__$1c41232b8c3f9382c4bdca1a05a1ab00e7$__906336e7a99f90620001c7908690869060040162001940565b60206040518083038186803b158015620001e057600080fd5b505af4158015620001f5573d6000803e3d6000fd5b505050506040513d601f19601f820116820180604052508101906200021b9190620014f2565b6003549091506001600160a01b038083169116146200026a5760405162461bcd60e51b815260206004820152600a6024820152692130b21039b4b3b732b960b11b60448201526064016200008a565b836000015184602001518560400151866060015187608001518860a001518960c0015173__$1c41232b8c3f9382c4bdca1a05a1ab00e7$__6330195ee7826040518263ffffffff1660e01b8152600401620002c691906200192b565b60206040518083038186803b158015620002df57600080fd5b505af4158015620002f4573d6000803e3d6000fd5b505050506040513d601f19601f820116820180604052508101906200031a91906200153a565b604051633d596d8560e21b815273__$1c41232b8c3f9382c4bdca1a05a1ab00e7$__9063f565b614906200035d908b908b908b908b908b908b90600401620019a9565b60206040518083038186803b1580156200037657600080fd5b505af41580156200038b573d6000803e3d6000fd5b505050506040513d601f19601f82011682018060405250810190620003b191906200153a565b14620003eb5760405162461bcd60e51b8152602060048201526008602482015267426164206172677360c01b60448201526064016200008a565b60608b01516001600160a01b031633146200041a5760405162461bcd60e51b81526004016200008a9062001972565b60008b60400151116200045d5760405162461bcd60e51b815260206004820152600a60248201526910985908185b5bdd5b9d60b21b60448201526064016200008a565b6020808c01516001600160a01b03908116600090815260019092526040909120541680620004a657620004a38c600001518d602001518e608001518f60a0015162000f77565b90505b60408c81015190516340c10f1960e01b815233600482015260248101919091526001600160a01b038216906340c10f1990604401600060405180830381600087803b158015620004f557600080fd5b505af11580156200050a573d6000803e3d6000fd5b505050507fbcad3d7d3dfccb90d49c6063bf70f828901fefc88937d90af74e58e6e55bc39d600160008e602001516001600160a01b03166001600160a01b0316815260200190815260200160002060009054906101000a90046001600160a01b03168d6040015133604051620005a0939291906001600160a01b0393841681526020810192909252909116604082015260600190565b60405180910390a1505050505050505050505050565b600454341015620006035760405162461bcd60e51b81526020600482015260166024820152750a6cae4ecd2c6ca40cccaca40dcdee840cadcdeeaced60531b60448201526064016200008a565b600081116200063e5760405162461bcd60e51b815260206004820152600660248201526504c6f636b20360d41b60448201526064016200008a565b6040516323b872dd60e01b8152336004820152306024820152604481018290526001600160a01b038316906323b872dd90606401602060405180830381600087803b1580156200068d57600080fd5b505af1158015620006a2573d6000803e3d6000fd5b505050506040513d601f19601f82011682018060405250810190620006c8919062001518565b506040805161ffff851681526001600160a01b038416602082015233818301526060810183905234608082015290517f86ca87289232fd00a488fc8f998cdf9fb84be0422b5fb38e8beea5b05d93cbb39181900360a00190a1505050565b60606000805480602002602001604051908101604052809291908181526020016000905b82821015620008f957838290600052602060002090600402016040518060c0016040529081600082018054620007809062001a5c565b80601f0160208091040260200160405190810160405280929190818152602001828054620007ae9062001a5c565b8015620007ff5780601f10620007d357610100808354040283529160200191620007ff565b820191906000526020600020905b815481529060010190602001808311620007e157829003601f168201915b505050505081526020016001820180546200081a9062001a5c565b80601f0160208091040260200160405190810160405280929190818152602001828054620008489062001a5c565b8015620008995780601f106200086d5761010080835404028352916020019162000899565b820191906000526020600020905b8154815290600101906020018083116200087b57829003601f168201915b5050509183525050600282015460ff81166020808401919091526001600160a01b0361010090920482166040840152600390930154908116606083015261ffff600160a01b9091041660809091015290825260019290920191016200074a565b50505050905090565b608081015160a08201516040516336e7a99f60e01b815260009073__$1c41232b8c3f9382c4bdca1a05a1ab00e7$__906336e7a99f906200094a908690869060040162001940565b60206040518083038186803b1580156200096357600080fd5b505af415801562000978573d6000803e3d6000fd5b505050506040513d601f19601f820116820180604052508101906200099e9190620014f2565b6003549091506001600160a01b03808316911614620009ed5760405162461bcd60e51b815260206004820152600a6024820152692130b21039b4b3b732b960b11b60448201526064016200008a565b83600001518460200151856040015186606001516040518060200160405280600081525060405180602001604052806000815250896080015173__$1c41232b8c3f9382c4bdca1a05a1ab00e7$__6330195ee7826040518263ffffffff1660e01b815260040162000a5f91906200192b565b60206040518083038186803b15801562000a7857600080fd5b505af415801562000a8d573d6000803e3d6000fd5b505050506040513d601f19601f8201168201806040525081019062000ab391906200153a565b604051633d596d8560e21b815273__$1c41232b8c3f9382c4bdca1a05a1ab00e7$__9063f565b6149062000af6908b908b908b908b908b908b90600401620019a9565b60206040518083038186803b15801562000b0f57600080fd5b505af415801562000b24573d6000803e3d6000fd5b505050506040513d601f19601f8201168201806040525081019062000b4a91906200153a565b1462000b845760405162461bcd60e51b8152602060048201526008602482015267426164206172677360c01b60448201526064016200008a565b60608b01516001600160a01b0316331462000bb35760405162461bcd60e51b81526004016200008a9062001972565b60208b0151604051631627905560e01b81526001600160a01b03909116600482015273__$1c41232b8c3f9382c4bdca1a05a1ab00e7$__9063162790559060240160206040518083038186803b15801562000c0d57600080fd5b505af415801562000c22573d6000803e3d6000fd5b505050506040513d601f19601f8201168201806040525081019062000c48919062001518565b62000c8d5760405162461bcd60e51b8152602060048201526014602482015273151bdad95b88191bd95cc81b9bdd08195e1a5cdd60621b60448201526064016200008a565b60208b01516040808d0151905163a9059cbb60e01b815233600482015260248101919091526001600160a01b039091169063a9059cbb90604401602060405180830381600087803b15801562000ce257600080fd5b505af115801562000cf7573d6000803e3d6000fd5b505050506040513d601f19601f8201168201806040525081019062000d1d919062001518565b508a516020808d01516040808f0151815161ffff90951685526001600160a01b039092169284019290925282820152336060830152517f79e899183764190fba6bf8b85f3174a808c6d1e00c8883cc5c2c451e106d53c19181900360800190a15050505050505050505050565b6001600160a01b038116331462000db55760405162461bcd60e51b81526004016200008a9062001972565b828262000df25760405162461bcd60e51b815260206004820152600a60248201526910985908185b5bdd5b9d60b21b60448201526064016200008a565b6001600160a01b038481166000908152600260205260409020600301541662000e545760405162461bcd60e51b81526020600482015260136024820152722737ba1039bab83837b93a32b2103a37b5b2b760691b60448201526064016200008a565b6001600160a01b03841660009081526002602052604090206003015461ffff868116600160a01b909204161462000ec15760405162461bcd60e51b815260206004820152601060248201526f2130b21039b7bab931b29031b430b4b760811b60448201526064016200008a565b60405163079cc67960e41b81526001600160a01b038381166004830152602482018590528216906379cc679090604401600060405180830381600087803b15801562000f0c57600080fd5b505af115801562000f21573d6000803e3d6000fd5b5050604080516001600160a01b0388811682526020820188905286168183015290517fdbdf9b8e4b75e75b162d151ec8fc7f0561cabab5fcccfa2600be62223e4300c49350908190036060019150a15050505050565b6001600160a01b038381166000908152600160205260408120549091161562000fd55760405162461bcd60e51b815260206004820152600f60248201526e105b1c9958591e481ddc985c1c1959608a1b60448201526064016200008a565b8251620010105760405162461bcd60e51b8152602060048201526008602482015267426164206e616d6560c01b60448201526064016200008a565b81516200104d5760405162461bcd60e51b815260206004820152600a602482015269109859081cde5b589bdb60b21b60448201526064016200008a565b60008561ffff1611620010925760405162461bcd60e51b815260206004820152600c60248201526b1098590818da185a5b881a5960a21b60448201526064016200008a565b60008383604051620010a4906200138a565b620010b192919062001940565b604051809103906000f080158015620010ce573d6000803e3d6000fd5b506001600160a01b03868116600090815260016020908152604080832080546001600160a01b0319169486169485179055805160c081018252898152808301899052815163313ce56760e01b815282519697509395909491850193919263313ce5679260048082019391829003018186803b1580156200114d57600080fd5b505afa15801562001162573d6000803e3d6000fd5b505050506040513d601f19601f82011682018060405250810190620011889190620017ee565b60ff1681526001600160a01b03808516602080840191909152908916604083015261ffff8a166060909201919091526000805460018101825590805282518051939450849360049092027f290decd9548b62a8d60345a988386fc84ba6bc95484008f6362f93160ef3e5630192620012069284929091019062001398565b50602082810151805162001221926001850192019062001398565b506040828101516002808401805460608701516001600160a01b03908116610100026001600160a81b031990921660ff9095169490941717905560808501516003909401805460a09096015161ffff16600160a01b026001600160b01b031990961694831694909417949094179092559084166000908152602092835220825180518493620012b592849291019062001398565b506020828101518051620012d0926001850192019062001398565b5060408281015160028301805460608087015160ff9094166001600160a81b0319909216919091176101006001600160a01b03948516021790915560808501516003909401805460a0909601519483166001600160b01b031990961695909517600160a01b61ffff95861602179094558151928b16835289811660208401528516908201527fb882092a0e4a7b6c2d0f02a2cdc48c3f8732b4db08e00c15aefa5523ca741e6d910160405180910390a15095945050505050565b611dc18062001ac983390190565b828054620013a69062001a5c565b90600052602060002090601f016020900481019282620013ca576000855562001415565b82601f10620013e557805160ff191683800117855562001415565b8280016001018555821562001415579182015b8281111562001415578251825591602001919060010190620013f8565b506200142392915062001427565b5090565b5b8082111562001423576000815560010162001428565b80356200144b8162001aaf565b919050565b600082601f83011262001461578081fd5b813567ffffffffffffffff808211156200147f576200147f62001a99565b604051601f8301601f19908116603f01168101908282118183101715620014aa57620014aa62001a99565b81604052838152866020858801011115620014c3578485fd5b8360208701602083013792830160200193909352509392505050565b803561ffff811681146200144b57600080fd5b60006020828403121562001504578081fd5b8151620015118162001aaf565b9392505050565b6000602082840312156200152a578081fd5b8151801515811462001511578182fd5b6000602082840312156200154c578081fd5b5051919050565b60006020828403121562001565578081fd5b813567ffffffffffffffff808211156200157d578283fd5b90830190610100828603121562001592578283fd5b6200159c62001a09565b620015a783620014df565b8152620015b7602084016200143e565b602082015260408301356040820152620015d4606084016200143e565b6060820152608083013582811115620015eb578485fd5b620015f98782860162001450565b60808301525060a08301358281111562001611578485fd5b6200161f8782860162001450565b60a08301525060c08301358281111562001637578485fd5b620016458782860162001450565b60c08301525060e0830135828111156200165d578485fd5b6200166b8782860162001450565b60e08301525095945050505050565b6000602082840312156200168c578081fd5b813567ffffffffffffffff80821115620016a4578283fd5b9083019060c08286031215620016b8578283fd5b620016c262001a36565b620016cd83620014df565b8152620016dd602084016200143e565b602082015260408301356040820152620016fa606084016200143e565b606082015260808301358281111562001711578485fd5b6200171f8782860162001450565b60808301525060a08301358281111562001737578485fd5b620017458782860162001450565b60a08301525095945050505050565b60008060006060848603121562001769578182fd5b6200177484620014df565b92506020840135620017868162001aaf565b929592945050506040919091013590565b60008060008060808587031215620017ad578081fd5b620017b885620014df565b93506020850135620017ca8162001aaf565b9250604085013591506060850135620017e38162001aaf565b939692955090935050565b60006020828403121562001800578081fd5b815160ff8116811462001511578182fd5b60008151808452815b8181101562001838576020818501810151868301820152016200181a565b818111156200184a5782602083870101525b50601f01601f19169290920160200192915050565b60006020808301818452808551808352604092508286019150828160051b870101848801865b838110156200191d57603f19898403018552815160c08151818652620018ae8287018262001811565b915050888201518582038a870152620018c8828262001811565b838a015160ff16878b01526060808501516001600160a01b03908116918901919091526080808601519091169088015260a09384015161ffff1693909601929092525050938601939086019060010162001885565b509098975050505050505050565b60208152600062001511602083018462001811565b60408152600062001955604083018562001811565b828103602084015262001969818562001811565b95945050505050565b6020808252601c908201527f526563656976657220616e642073656e646572206d69736d6174636800000000604082015260600190565b61ffff871681526001600160a01b038681166020830152604082018690528416606082015260c060808201819052600090620019e89083018562001811565b82810360a0840152620019fc818562001811565b9998505050505050505050565b604051610100810167ffffffffffffffff8111828210171562001a305762001a3062001a99565b60405290565b60405160c0810167ffffffffffffffff8111828210171562001a305762001a3062001a99565b600181811c9082168062001a7157607f821691505b6020821081141562001a9357634e487b7160e01b600052602260045260246000fd5b50919050565b634e487b7160e01b600052604160045260246000fd5b6001600160a01b038116811462001ac557600080fd5b5056fe60806040523480156200001157600080fd5b5060405162001dc138038062001dc183398101604081905262000034916200039b565b8151829082906200004d90600590602085019062000242565b5080516200006390600690602084019062000242565b50506007805460ff19169055506200007d600033620000dd565b620000a97f9f2df0fed2c77648de5860a4cc508cd0818c85b8b8a1ab4ceeef8d981c8956a633620000dd565b620000d57f65d7a28e3265b37a6474929f336521b332c1681b933f6cb9f3376673440d862a33620000dd565b505062000455565b620000e98282620000ed565b5050565b6200010482826200013060201b6200096e1760201c565b60008281526001602090815260409091206200012b918390620009f2620001d0821b17901c565b505050565b6000828152602081815260408083206001600160a01b038516845290915290205460ff16620000e9576000828152602081815260408083206001600160a01b03851684529091529020805460ff191660011790556200018c3390565b6001600160a01b0316816001600160a01b0316837f2f8788117e7eff1d82e926ec794901d17c78024a50270940304540a733656f0d60405160405180910390a45050565b6000620001e7836001600160a01b038416620001f0565b90505b92915050565b60008181526001830160205260408120546200023957508154600181810184556000848152602080822090930184905584548482528286019093526040902091909155620001ea565b506000620001ea565b828054620002509062000402565b90600052602060002090601f016020900481019282620002745760008555620002bf565b82601f106200028f57805160ff1916838001178555620002bf565b82800160010185558215620002bf579182015b82811115620002bf578251825591602001919060010190620002a2565b50620002cd929150620002d1565b5090565b5b80821115620002cd5760008155600101620002d2565b600082601f830112620002f9578081fd5b81516001600160401b03808211156200031657620003166200043f565b604051601f8301601f19908116603f011681019082821181831017156200034157620003416200043f565b816040528381526020925086838588010111156200035d578485fd5b8491505b8382101562000380578582018301518183018401529082019062000361565b838211156200039157848385830101525b9695505050505050565b60008060408385031215620003ae578182fd5b82516001600160401b0380821115620003c5578384fd5b620003d386838701620002e8565b93506020850151915080821115620003e9578283fd5b50620003f885828601620002e8565b9150509250929050565b600181811c908216806200041757607f821691505b602082108114156200043957634e487b7160e01b600052602260045260246000fd5b50919050565b634e487b7160e01b600052604160045260246000fd5b61195c80620004656000396000f3fe608060405234801561001057600080fd5b50600436106101c45760003560e01c806370a08231116100f9578063a457c2d711610097578063d539139311610071578063d5391393146103af578063d547741f146103d6578063dd62ed3e146103e9578063e63ab1e91461042257600080fd5b8063a457c2d714610376578063a9059cbb14610389578063ca15c8731461039c57600080fd5b80639010d07c116100d35780639010d07c1461032857806391d148541461035357806395d89b4114610366578063a217fddf1461036e57600080fd5b806370a08231146102e457806379cc67901461030d5780638456cb591461032057600080fd5b8063313ce567116101665780633f4ba83a116101405780633f4ba83a146102ab57806340c10f19146102b357806342966c68146102c65780635c975abb146102d957600080fd5b8063313ce5671461027657806336568abe14610285578063395093511461029857600080fd5b806318160ddd116101a257806318160ddd1461021957806323b872dd1461022b578063248a9ca31461023e5780632f2ff15d1461026157600080fd5b806301ffc9a7146101c957806306fdde03146101f1578063095ea7b314610206575b600080fd5b6101dc6101d7366004611774565b610449565b60405190151581526020015b60405180910390f35b6101f9610474565b6040516101e89190611811565b6101dc6102143660046116f0565b610506565b6004545b6040519081526020016101e8565b6101dc6102393660046116b5565b61051e565b61021d61024c366004611719565b60009081526020819052604090206001015490565b61027461026f366004611731565b610542565b005b604051601281526020016101e8565b610274610293366004611731565b61056d565b6101dc6102a63660046116f0565b6105f0565b61027461062f565b6102746102c13660046116f0565b6106d5565b6102746102d4366004611719565b610774565b60075460ff166101dc565b61021d6102f2366004611669565b6001600160a01b031660009081526002602052604090205490565b61027461031b3660046116f0565b610781565b610274610796565b61033b610336366004611753565b61083a565b6040516001600160a01b0390911681526020016101e8565b6101dc610361366004611731565b610859565b6101f9610882565b61021d600081565b6101dc6103843660046116f0565b610891565b6101dc6103973660046116f0565b610923565b61021d6103aa366004611719565b610931565b61021d7f9f2df0fed2c77648de5860a4cc508cd0818c85b8b8a1ab4ceeef8d981c8956a681565b6102746103e4366004611731565b610948565b61021d6103f7366004611683565b6001600160a01b03918216600090815260036020908152604080832093909416825291909152205490565b61021d7f65d7a28e3265b37a6474929f336521b332c1681b933f6cb9f3376673440d862a81565b60006001600160e01b03198216635a05180f60e01b148061046e575061046e82610a07565b92915050565b606060058054610483906118d5565b80601f01602080910402602001604051908101604052809291908181526020018280546104af906118d5565b80156104fc5780601f106104d1576101008083540402835291602001916104fc565b820191906000526020600020905b8154815290600101906020018083116104df57829003601f168201915b5050505050905090565b600033610514818585610a3c565b5060019392505050565b60003361052c858285610b60565b610537858585610bf2565b506001949350505050565b60008281526020819052604090206001015461055e8133610dcb565b6105688383610e2f565b505050565b6001600160a01b03811633146105e25760405162461bcd60e51b815260206004820152602f60248201527f416363657373436f6e74726f6c3a2063616e206f6e6c792072656e6f756e636560448201526e103937b632b9903337b91039b2b63360891b60648201526084015b60405180910390fd5b6105ec8282610e51565b5050565b3360008181526003602090815260408083206001600160a01b0387168452909152812054909190610514908290869061062a908790611844565b610a3c565b6106597f65d7a28e3265b37a6474929f336521b332c1681b933f6cb9f3376673440d862a33610859565b6106cb5760405162461bcd60e51b815260206004820152603960248201527f45524332305072657365744d696e7465725061757365723a206d75737420686160448201527f76652070617573657220726f6c6520746f20756e70617573650000000000000060648201526084016105d9565b6106d3610e73565b565b6106ff7f9f2df0fed2c77648de5860a4cc508cd0818c85b8b8a1ab4ceeef8d981c8956a633610859565b61076a5760405162461bcd60e51b815260206004820152603660248201527f45524332305072657365744d696e7465725061757365723a206d7573742068616044820152751d99481b5a5b9d195c881c9bdb19481d1bc81b5a5b9d60521b60648201526084016105d9565b6105ec8282610f06565b61077e3382610ff1565b50565b61078c823383610b60565b6105ec8282610ff1565b6107c07f65d7a28e3265b37a6474929f336521b332c1681b933f6cb9f3376673440d862a33610859565b6108325760405162461bcd60e51b815260206004820152603760248201527f45524332305072657365744d696e7465725061757365723a206d75737420686160448201527f76652070617573657220726f6c6520746f20706175736500000000000000000060648201526084016105d9565b6106d361114b565b600082815260016020526040812061085290836111c6565b9392505050565b6000918252602082815260408084206001600160a01b0393909316845291905290205460ff1690565b606060068054610483906118d5565b3360008181526003602090815260408083206001600160a01b0387168452909152812054909190838110156109165760405162461bcd60e51b815260206004820152602560248201527f45524332303a2064656372656173656420616c6c6f77616e63652062656c6f77604482015264207a65726f60d81b60648201526084016105d9565b6105378286868403610a3c565b600033610514818585610bf2565b600081815260016020526040812061046e906111d2565b6000828152602081905260409020600101546109648133610dcb565b6105688383610e51565b6109788282610859565b6105ec576000828152602081815260408083206001600160a01b03851684529091529020805460ff191660011790556109ae3390565b6001600160a01b0316816001600160a01b0316837f2f8788117e7eff1d82e926ec794901d17c78024a50270940304540a733656f0d60405160405180910390a45050565b6000610852836001600160a01b0384166111dc565b60006001600160e01b03198216637965db0b60e01b148061046e57506301ffc9a760e01b6001600160e01b031983161461046e565b6001600160a01b038316610a9e5760405162461bcd60e51b8152602060048201526024808201527f45524332303a20617070726f76652066726f6d20746865207a65726f206164646044820152637265737360e01b60648201526084016105d9565b6001600160a01b038216610aff5760405162461bcd60e51b815260206004820152602260248201527f45524332303a20617070726f766520746f20746865207a65726f206164647265604482015261737360f01b60648201526084016105d9565b6001600160a01b0383811660008181526003602090815260408083209487168084529482529182902085905590518481527f8c5be1e5ebec7d5bd14f71427d1e84f3dd0314c0f7b2291e5b200ac8c7c3b925910160405180910390a3505050565b6001600160a01b038381166000908152600360209081526040808320938616835292905220546000198114610bec5781811015610bdf5760405162461bcd60e51b815260206004820152601d60248201527f45524332303a20696e73756666696369656e7420616c6c6f77616e636500000060448201526064016105d9565b610bec8484848403610a3c565b50505050565b6001600160a01b038316610c565760405162461bcd60e51b815260206004820152602560248201527f45524332303a207472616e736665722066726f6d20746865207a65726f206164604482015264647265737360d81b60648201526084016105d9565b6001600160a01b038216610cb85760405162461bcd60e51b815260206004820152602360248201527f45524332303a207472616e7366657220746f20746865207a65726f206164647260448201526265737360e81b60648201526084016105d9565b610cc383838361122b565b6001600160a01b03831660009081526002602052604090205481811015610d3b5760405162461bcd60e51b815260206004820152602660248201527f45524332303a207472616e7366657220616d6f756e7420657863656564732062604482015265616c616e636560d01b60648201526084016105d9565b6001600160a01b03808516600090815260026020526040808220858503905591851681529081208054849290610d72908490611844565b92505081905550826001600160a01b0316846001600160a01b03167fddf252ad1be2c89b69c2b068fc378daa952ba7f163c4a11628f55a4df523b3ef84604051610dbe91815260200190565b60405180910390a3610bec565b610dd58282610859565b6105ec57610ded816001600160a01b03166014611236565b610df8836020611236565b604051602001610e0992919061179c565b60408051601f198184030181529082905262461bcd60e51b82526105d991600401611811565b610e39828261096e565b600082815260016020526040902061056890826109f2565b610e5b8282611418565b6000828152600160205260409020610568908261147d565b60075460ff16610ebc5760405162461bcd60e51b815260206004820152601460248201527314185d5cd8589b194e881b9bdd081c185d5cd95960621b60448201526064016105d9565b6007805460ff191690557f5db9ee0a495bf2e6ff9c91a7834c1ba4fdd244a5e8aa4e537bd38aeae4b073aa335b6040516001600160a01b03909116815260200160405180910390a1565b6001600160a01b038216610f5c5760405162461bcd60e51b815260206004820152601f60248201527f45524332303a206d696e7420746f20746865207a65726f20616464726573730060448201526064016105d9565b610f686000838361122b565b8060046000828254610f7a9190611844565b90915550506001600160a01b03821660009081526002602052604081208054839290610fa7908490611844565b90915550506040518181526001600160a01b038316906000907fddf252ad1be2c89b69c2b068fc378daa952ba7f163c4a11628f55a4df523b3ef9060200160405180910390a35050565b6001600160a01b0382166110515760405162461bcd60e51b815260206004820152602160248201527f45524332303a206275726e2066726f6d20746865207a65726f206164647265736044820152607360f81b60648201526084016105d9565b61105d8260008361122b565b6001600160a01b038216600090815260026020526040902054818110156110d15760405162461bcd60e51b815260206004820152602260248201527f45524332303a206275726e20616d6f756e7420657863656564732062616c616e604482015261636560f01b60648201526084016105d9565b6001600160a01b038316600090815260026020526040812083830390556004805484929061110090849061187b565b90915550506040518281526000906001600160a01b038516907fddf252ad1be2c89b69c2b068fc378daa952ba7f163c4a11628f55a4df523b3ef9060200160405180910390a3505050565b60075460ff16156111915760405162461bcd60e51b815260206004820152601060248201526f14185d5cd8589b194e881c185d5cd95960821b60448201526064016105d9565b6007805460ff191660011790557f62e78cea01bee320cd4e420270b5ea74000d11b0c9f74754ebdbfc544b05a258610ee93390565b60006108528383611492565b600061046e825490565b60008181526001830160205260408120546112235750815460018181018455600084815260208082209093018490558454848252828601909352604090209190915561046e565b50600061046e565b6105688383836114ca565b6060600061124583600261185c565b611250906002611844565b67ffffffffffffffff81111561127657634e487b7160e01b600052604160045260246000fd5b6040519080825280601f01601f1916602001820160405280156112a0576020820181803683370190505b509050600360fc1b816000815181106112c957634e487b7160e01b600052603260045260246000fd5b60200101906001600160f81b031916908160001a905350600f60fb1b8160018151811061130657634e487b7160e01b600052603260045260246000fd5b60200101906001600160f81b031916908160001a905350600061132a84600261185c565b611335906001611844565b90505b60018111156113c9576f181899199a1a9b1b9c1cb0b131b232b360811b85600f166010811061137757634e487b7160e01b600052603260045260246000fd5b1a60f81b82828151811061139b57634e487b7160e01b600052603260045260246000fd5b60200101906001600160f81b031916908160001a90535060049490941c936113c2816118be565b9050611338565b5083156108525760405162461bcd60e51b815260206004820181905260248201527f537472696e67733a20686578206c656e67746820696e73756666696369656e7460448201526064016105d9565b6114228282610859565b156105ec576000828152602081815260408083206001600160a01b0385168085529252808320805460ff1916905551339285917ff6391f5c32d9c69d2a47ea670b442974b53935d1edc7fd64eb21e047a839171b9190a45050565b6000610852836001600160a01b038416611530565b60008260000182815481106114b757634e487b7160e01b600052603260045260246000fd5b9060005260206000200154905092915050565b60075460ff16156105685760405162461bcd60e51b815260206004820152602a60248201527f45524332305061757361626c653a20746f6b656e207472616e736665722077686044820152691a5b19481c185d5cd95960b21b60648201526084016105d9565b6000818152600183016020526040812054801561164357600061155460018361187b565b85549091506000906115689060019061187b565b90508181146115e957600086600001828154811061159657634e487b7160e01b600052603260045260246000fd5b90600052602060002001549050808760000184815481106115c757634e487b7160e01b600052603260045260246000fd5b6000918252602080832090910192909255918252600188019052604090208390555b855486908061160857634e487b7160e01b600052603160045260246000fd5b60019003818190600052602060002001600090559055856001016000868152602001908152602001600020600090556001935050505061046e565b600091505061046e565b80356001600160a01b038116811461166457600080fd5b919050565b60006020828403121561167a578081fd5b6108528261164d565b60008060408385031215611695578081fd5b61169e8361164d565b91506116ac6020840161164d565b90509250929050565b6000806000606084860312156116c9578081fd5b6116d28461164d565b92506116e06020850161164d565b9150604084013590509250925092565b60008060408385031215611702578182fd5b61170b8361164d565b946020939093013593505050565b60006020828403121561172a578081fd5b5035919050565b60008060408385031215611743578182fd5b823591506116ac6020840161164d565b60008060408385031215611765578182fd5b50508035926020909101359150565b600060208284031215611785578081fd5b81356001600160e01b031981168114610852578182fd5b7f416363657373436f6e74726f6c3a206163636f756e74200000000000000000008152600083516117d4816017850160208801611892565b7001034b99036b4b9b9b4b733903937b6329607d1b6017918401918201528351611805816028840160208801611892565b01602801949350505050565b6020815260008251806020840152611830816040850160208701611892565b601f01601f19169190910160400192915050565b6000821982111561185757611857611910565b500190565b600081600019048311821515161561187657611876611910565b500290565b60008282101561188d5761188d611910565b500390565b60005b838110156118ad578181015183820152602001611895565b83811115610bec5750506000910152565b6000816118cd576118cd611910565b506000190190565b600181811c908216806118e957607f821691505b6020821081141561190a57634e487b7160e01b600052602260045260246000fd5b50919050565b634e487b7160e01b600052601160045260246000fdfea2646970667358221220b1229944afde70a1409fe07edda43536853b778f78db3a3d74a08a0ffb20a90164736f6c63430008040033a2646970667358221220c48fa493b9b0f4a353b978cfd5fe8d807762704f2539785ae377f4bfe37a727c64736f6c63430008040033",
  "linkReferences": {
    "contracts/Utils.sol": {
      "Utils": [
        {
          "length": 20,
          "start": 570
        },
        {
          "length": 20,
          "start": 814
        },
        {
          "length": 20,
          "start": 968
        },
        {
          "length": 20,
          "start": 2493
        },
        {
          "length": 20,
          "start": 2759
        },
        {
          "length": 20,
          "start": 2913
        },
        {
          "length": 20,
          "start": 3190
        }
      ]
    }
  },
  "deployedLinkReferences": {
    "contracts/Utils.sol": {
      "Utils": [
        {
          "length": 20,
          "start": 411
        },
        {
          "length": 20,
          "start": 655
        },
        {
          "length": 20,
          "start": 809
        },
        {
          "length": 20,
          "start": 2334
        },
        {
          "length": 20,
          "start": 2600
        },
        {
          "length": 20,
          "start": 2754
        },
        {
          "length": 20,
          "start": 3031
        }
      ]
    }
  }
}