{
  "_format": "hh-sol-artifact-1",
  "contractName": "Bridge",
  "sourceName": "contracts/Bridge.sol",
  "abi": [
    {
      "inputs": [
        {
          "internalType": "address",
          "name": "trustedSigner",
          "type": "address"
        }
      ],
      "stateMutability": "nonpayable",
      "type": "constructor"
    },
    {
      "anonymous": false,
      "inputs": [
        {
          "indexed": false,
          "internalType": "address",
          "name": "wrappedToken",
          "type": "address"
        },
        {
          "indexed": false,
          "internalType": "uint256",
          "name": "amount",
          "type": "uint256"
        },
        {
          "indexed": false,
          "internalType": "address",
          "name": "receiver",
          "type": "address"
        }
      ],
      "name": "Burn",
      "type": "event"
    },
    {
      "anonymous": false,
      "inputs": [
        {
          "indexed": false,
          "internalType": "uint16",
          "name": "targetChain",
          "type": "uint16"
        },
        {
          "indexed": false,
          "internalType": "address",
          "name": "token",
          "type": "address"
        },
        {
          "indexed": false,
          "internalType": "address",
          "name": "receiver",
          "type": "address"
        },
        {
          "indexed": false,
          "internalType": "uint256",
          "name": "amount",
          "type": "uint256"
        },
        {
          "indexed": false,
          "internalType": "uint256",
          "name": "serviceFee",
          "type": "uint256"
        }
      ],
      "name": "Lock",
      "type": "event"
    },
    {
      "anonymous": false,
      "inputs": [
        {
          "indexed": false,
          "internalType": "address",
          "name": "wrappedToken",
          "type": "address"
        },
        {
          "indexed": false,
          "internalType": "uint256",
          "name": "amount",
          "type": "uint256"
        },
        {
          "indexed": false,
          "internalType": "address",
          "name": "receiver",
          "type": "address"
        }
      ],
      "name": "Mint",
      "type": "event"
    },
    {
      "anonymous": false,
      "inputs": [
        {
          "indexed": false,
          "internalType": "uint256",
          "name": "sourceChain",
          "type": "uint256"
        },
        {
          "indexed": false,
          "internalType": "address",
          "name": "token",
          "type": "address"
        },
        {
          "indexed": false,
          "internalType": "uint256",
          "name": "amount",
          "type": "uint256"
        },
        {
          "indexed": false,
          "internalType": "address",
          "name": "receiver",
          "type": "address"
        }
      ],
      "name": "Release",
      "type": "event"
    },
    {
      "anonymous": false,
      "inputs": [
        {
          "indexed": false,
          "internalType": "uint16",
          "name": "sourceChain",
          "type": "uint16"
        },
        {
          "indexed": false,
          "internalType": "address",
          "name": "nativeToken",
          "type": "address"
        },
        {
          "indexed": false,
          "internalType": "address",
          "name": "wrappedToken",
          "type": "address"
        }
      ],
      "name": "WrappedTokenDeployed",
      "type": "event"
    },
    {
      "stateMutability": "payable",
      "type": "fallback"
    },
    {
      "inputs": [
        {
          "internalType": "address",
          "name": "wrappedToken",
          "type": "address"
        },
        {
          "internalType": "uint256",
          "name": "amount",
          "type": "uint256"
        },
        {
          "internalType": "address",
          "name": "receiver",
          "type": "address"
        }
      ],
      "name": "burn",
      "outputs": [],
      "stateMutability": "nonpayable",
      "type": "function"
    },
    {
      "inputs": [
        {
          "internalType": "uint16",
          "name": "targetChain",
          "type": "uint16"
        },
        {
          "internalType": "address",
          "name": "nativeToken",
          "type": "address"
        },
        {
          "internalType": "uint256",
          "name": "amount",
          "type": "uint256"
        },
        {
          "internalType": "address",
          "name": "receiver",
          "type": "address"
        }
      ],
      "name": "lock",
      "outputs": [],
      "stateMutability": "nonpayable",
      "type": "function"
    },
    {
      "inputs": [
        {
          "internalType": "uint16",
          "name": "nativeChain",
          "type": "uint16"
        },
        {
          "internalType": "address",
          "name": "nativeToken",
          "type": "address"
        },
        {
          "internalType": "uint256",
          "name": "amount",
          "type": "uint256"
        },
        {
          "internalType": "address",
          "name": "receiver",
          "type": "address"
        },
        {
          "internalType": "bytes",
          "name": "txHash",
          "type": "bytes"
        },
        {
          "internalType": "bytes",
          "name": "txSigned",
          "type": "bytes"
        }
      ],
      "name": "mint",
      "outputs": [],
      "stateMutability": "nonpayable",
      "type": "function"
    },
    {
      "inputs": [
        {
          "internalType": "address",
          "name": "nativeToken",
          "type": "address"
        }
      ],
      "name": "nativeToWrappedToken",
      "outputs": [
        {
          "internalType": "address",
          "name": "",
          "type": "address"
        }
      ],
      "stateMutability": "view",
      "type": "function"
    },
    {
      "inputs": [
        {
          "internalType": "uint16",
          "name": "sourceChain",
          "type": "uint16"
        },
        {
          "internalType": "address",
          "name": "nativeToken",
          "type": "address"
        },
        {
          "internalType": "uint256",
          "name": "amount",
          "type": "uint256"
        },
        {
          "internalType": "address",
          "name": "receiver",
          "type": "address"
        },
        {
          "internalType": "bytes",
          "name": "txHash",
          "type": "bytes"
        },
        {
          "internalType": "bytes",
          "name": "txSigned",
          "type": "bytes"
        }
      ],
      "name": "release",
      "outputs": [],
      "stateMutability": "nonpayable",
      "type": "function"
    },
    {
      "inputs": [
        {
          "internalType": "uint16",
          "name": "nativeChain",
          "type": "uint16"
        },
        {
          "internalType": "address",
          "name": "nativeToken",
          "type": "address"
        },
        {
          "components": [
            {
              "internalType": "string",
              "name": "name",
              "type": "string"
            },
            {
              "internalType": "string",
              "name": "symbol",
              "type": "string"
            },
            {
              "internalType": "uint8",
              "name": "decimals",
              "type": "uint8"
            }
          ],
          "internalType": "struct Structs.WrappedTokenParams",
          "name": "newToken",
          "type": "tuple"
        }
      ],
      "name": "wrapToken",
      "outputs": [
        {
          "internalType": "address",
          "name": "",
          "type": "address"
        }
      ],
      "stateMutability": "nonpayable",
      "type": "function"
    },
    {
      "inputs": [],
      "name": "wrappedTokens",
      "outputs": [
        {
          "components": [
            {
              "internalType": "string",
              "name": "name",
              "type": "string"
            },
            {
              "internalType": "string",
              "name": "symbol",
              "type": "string"
            },
            {
              "internalType": "uint8",
              "name": "decimals",
              "type": "uint8"
            },
            {
              "internalType": "address",
              "name": "token",
              "type": "address"
            },
            {
              "internalType": "address",
              "name": "nativeToken",
              "type": "address"
            },
            {
              "internalType": "uint16",
              "name": "nativeChain",
              "type": "uint16"
            }
          ],
          "internalType": "struct Structs.WrappedToken[]",
          "name": "",
          "type": "tuple[]"
        }
      ],
      "stateMutability": "view",
      "type": "function"
    },
    {
      "stateMutability": "payable",
      "type": "receive"
    }
  ],
  "bytecode": "0x608060405234801561001057600080fd5b5060405161350738038061350783398101604081905261002f91610054565b600280546001600160a01b0319166001600160a01b0392909216919091179055610082565b600060208284031215610065578081fd5b81516001600160a01b038116811461007b578182fd5b9392505050565b613476806100916000396000f3fe6080604052600436106200007f5760003560e01c8063b8ce670d1162000055578063b8ce670d1462000197578063be639e0314620001bc578063cdeb0f4714620001e1578063e3201af2146200020857620000bd565b806399e4c3ba14620000f1578063b4c940a31462000118578063b6cf86c9146200017257620000bd565b36620000bd5760405162461bcd60e51b815260206004820152600860248201526714995d995c9d195960c21b60448201526064015b60405180910390fd5b60405162461bcd60e51b815260206004820152600860248201526714995d995c9d195960c21b6044820152606401620000b4565b348015620000fe57600080fd5b5062000116620001103660046200137e565b6200022d565b005b3480156200012557600080fd5b50620001556200013736600462001189565b6001600160a01b039081166000908152600160205260409020541690565b6040516001600160a01b0390911681526020015b60405180910390f35b3480156200017f57600080fd5b5062000116620001913660046200137e565b620005ea565b348015620001a457600080fd5b5062000116620001b6366004620011ce565b620008e9565b348015620001c957600080fd5b5062000116620001db36600462001327565b620009e0565b348015620001ee57600080fd5b50620001f962000b05565b60405162000169919062001497565b3480156200021557600080fd5b5062000155620002273660046200124f565b62000ce1565b8181600073__$1c41232b8c3f9382c4bdca1a05a1ab00e7$__6336e7a99f84846040518363ffffffff1660e01b81526004016200026c92919062001578565b60206040518083038186803b1580156200028557600080fd5b505af41580156200029a573d6000803e3d6000fd5b505050506040513d601f19601f82011682018060405250810190620002c09190620011af565b6002549091506001600160a01b038083169116146200030f5760405162461bcd60e51b815260206004820152600a6024820152692130b21039b4b3b732b960b11b6044820152606401620000b4565b888888888873__$1c41232b8c3f9382c4bdca1a05a1ab00e7$__6330195ee7826040518263ffffffff1660e01b81526004016200034d919062001563565b60206040518083038186803b1580156200036657600080fd5b505af41580156200037b573d6000803e3d6000fd5b505050506040513d601f19601f82011682018060405250810190620003a1919062001236565b604051631a94e4d360e11b815273__$1c41232b8c3f9382c4bdca1a05a1ab00e7$__90633529c9a690620003e0908990899089908990600401620015aa565b60206040518083038186803b158015620003f957600080fd5b505af41580156200040e573d6000803e3d6000fd5b505050506040513d601f19601f8201168201806040525081019062000434919062001236565b146200046e5760405162461bcd60e51b8152602060048201526008602482015267426164206172677360c01b6044820152606401620000b4565b60008c11620004ad5760405162461bcd60e51b815260206004820152600a60248201526910985908185b5bdd5b9d60b21b6044820152606401620000b4565b6001600160a01b038d811660009081526001602052604090205416620005035760405162461bcd60e51b815260206004820152600a60248201526915dc985c08199a5c9cdd60b21b6044820152606401620000b4565b6001600160a01b03808e16600090815260016020526040908190205490516340c10f1960e01b81528d83166004820152602481018f90529116906340c10f1990604401600060405180830381600087803b1580156200056157600080fd5b505af115801562000576573d6000803e3d6000fd5b505050506001600160a01b038d811660009081526001602090815260409182902054825190841681529081018f9052918d16908201527fbcad3d7d3dfccb90d49c6063bf70f828901fefc88937d90af74e58e6e55bc39d906060015b60405180910390a15050505050505050505050505050565b8181600073__$1c41232b8c3f9382c4bdca1a05a1ab00e7$__6336e7a99f84846040518363ffffffff1660e01b81526004016200062992919062001578565b60206040518083038186803b1580156200064257600080fd5b505af415801562000657573d6000803e3d6000fd5b505050506040513d601f19601f820116820180604052508101906200067d9190620011af565b6002549091506001600160a01b03808316911614620006cc5760405162461bcd60e51b815260206004820152600a6024820152692130b21039b4b3b732b960b11b6044820152606401620000b4565b888888888873__$1c41232b8c3f9382c4bdca1a05a1ab00e7$__6330195ee7826040518263ffffffff1660e01b81526004016200070a919062001563565b60206040518083038186803b1580156200072357600080fd5b505af415801562000738573d6000803e3d6000fd5b505050506040513d601f19601f820116820180604052508101906200075e919062001236565b604051631a94e4d360e11b815273__$1c41232b8c3f9382c4bdca1a05a1ab00e7$__90633529c9a6906200079d908990899089908990600401620015aa565b60206040518083038186803b158015620007b657600080fd5b505af4158015620007cb573d6000803e3d6000fd5b505050506040513d601f19601f82011682018060405250810190620007f1919062001236565b146200082b5760405162461bcd60e51b8152602060048201526008602482015267426164206172677360c01b6044820152606401620000b4565b60405163a9059cbb60e01b81526001600160a01b038c81166004830152602482018e90528e169063a9059cbb90604401602060405180830381600087803b1580156200087657600080fd5b505af11580156200088b573d6000803e3d6000fd5b505050506040513d601f19601f82011682018060405250810190620008b1919062001214565b507f79e899183764190fba6bf8b85f3174a808c6d1e00c8883cc5c2c451e106d53c18e8e8e8e604051620005d29493929190620015aa565b8282620009265760405162461bcd60e51b815260206004820152600a60248201526910985908185b5bdd5b9d60b21b6044820152606401620000b4565b60405163079cc67960e41b81526001600160a01b038381166004830152602482018590528216906379cc679090604401600060405180830381600087803b1580156200097157600080fd5b505af115801562000986573d6000803e3d6000fd5b5050604080516001600160a01b038089168252602082018890528616918101919091527fdbdf9b8e4b75e75b162d151ec8fc7f0561cabab5fcccfa2600be62223e4300c4925060600190505b60405180910390a150505050565b6000821162000a1b5760405162461bcd60e51b815260206004820152600660248201526504c6f636b20360d41b6044820152606401620000b4565b6040516323b872dd60e01b81526001600160a01b038281166004830152306024830152604482018490528416906323b872dd90606401602060405180830381600087803b15801562000a6c57600080fd5b505af115801562000a81573d6000803e3d6000fd5b505050506040513d601f19601f8201168201806040525081019062000aa7919062001214565b506040805161ffff861681526001600160a01b03808616602083015283169181019190915260608101839052600060808201527f86ca87289232fd00a488fc8f998cdf9fb84be0422b5fb38e8beea5b05d93cbb39060a001620009d2565b60606000805480602002602001604051908101604052809291908181526020016000905b8282101562000cd857838290600052602060002090600402016040518060c001604052908160008201805462000b5f9062001603565b80601f016020809104026020016040519081016040528092919081815260200182805462000b8d9062001603565b801562000bde5780601f1062000bb25761010080835404028352916020019162000bde565b820191906000526020600020905b81548152906001019060200180831162000bc057829003601f168201915b5050505050815260200160018201805462000bf99062001603565b80601f016020809104026020016040519081016040528092919081815260200182805462000c279062001603565b801562000c785780601f1062000c4c5761010080835404028352916020019162000c78565b820191906000526020600020905b81548152906001019060200180831162000c5a57829003601f168201915b5050509183525050600282015460ff81166020808401919091526001600160a01b0361010090920482166040840152600390930154908116606083015261ffff600160a01b90910416608090910152908252600192909201910162000b29565b50505050905090565b6001600160a01b038281166000908152600160205260408120549091161562000d3f5760405162461bcd60e51b815260206004820152600f60248201526e105b1c9958591e481ddc985c1c1959608a1b6044820152606401620000b4565b81515162000d7b5760405162461bcd60e51b8152602060048201526008602482015267426164206e616d6560c01b6044820152606401620000b4565b60208201515162000dbc5760405162461bcd60e51b815260206004820152600a602482015269109859081cde5b589bdb60b21b6044820152606401620000b4565b61ffff841662000dfe5760405162461bcd60e51b815260206004820152600c60248201526b1098590818da185a5b881a5960a21b6044820152606401620000b4565b60008260000151836020015160405162000e18906200102e565b62000e2592919062001578565b604051809103906000f08015801562000e42573d6000803e3d6000fd5b506001600160a01b03858116600090815260016020908152604080832080546001600160a01b0319169486169485179055805160c081018252885181528883015181840152815163313ce56760e01b815282519697509395909491850193919263313ce5679260048082019391829003018186803b15801562000ec457600080fd5b505afa15801562000ed9573d6000803e3d6000fd5b505050506040513d601f19601f8201168201806040525081019062000eff91906200142a565b60ff1681526001600160a01b03808516602080840191909152908816604083015261ffff891660609092019190915282546001810184556000938452928190208251805193946004029091019262000f5b92849201906200103c565b50602082810151805162000f7692600185019201906200103c565b5060408281015160028301805460608087015160ff9094166001600160a81b0319909216919091176101006001600160a01b03948516021790915560808501516003909401805460a0909601519483166001600160b01b031990961695909517600160a01b61ffff95861602179094558151928916835287811660208401528416908201527fb882092a0e4a7b6c2d0f02a2cdc48c3f8732b4db08e00c15aefa5523ca741e6d910160405180910390a1949350505050565b611dc1806200168083390190565b8280546200104a9062001603565b90600052602060002090601f0160209004810192826200106e5760008555620010b9565b82601f106200108957805160ff1916838001178555620010b9565b82800160010185558215620010b9579182015b82811115620010b95782518255916020019190600101906200109c565b50620010c7929150620010cb565b5090565b5b80821115620010c75760008155600101620010cc565b600082601f830112620010f3578081fd5b813567ffffffffffffffff8082111562001111576200111162001640565b604051601f8301601f19908116603f011681019082821181831017156200113c576200113c62001640565b8160405283815286602085880101111562001155578485fd5b8360208701602083013792830160200193909352509392505050565b803561ffff811681146200118457600080fd5b919050565b6000602082840312156200119b578081fd5b8135620011a88162001656565b9392505050565b600060208284031215620011c1578081fd5b8151620011a88162001656565b600080600060608486031215620011e3578182fd5b8335620011f08162001656565b9250602084013591506040840135620012098162001656565b809150509250925092565b60006020828403121562001226578081fd5b81518015158114620011a8578182fd5b60006020828403121562001248578081fd5b5051919050565b60008060006060848603121562001264578283fd5b6200126f8462001171565b92506020840135620012818162001656565b9150604084013567ffffffffffffffff808211156200129e578283fd5b9085019060608288031215620012b2578283fd5b620012bc620015d7565b823582811115620012cb578485fd5b620012d989828601620010e2565b825250602083013582811115620012ee578485fd5b620012fc89828601620010e2565b6020830152506040830135925062001314836200166f565b8260408201528093505050509250925092565b600080600080608085870312156200133d578081fd5b620013488562001171565b935060208501356200135a8162001656565b9250604085013591506060850135620013738162001656565b939692955090935050565b60008060008060008060c0878903121562001397578182fd5b620013a28762001171565b95506020870135620013b48162001656565b9450604087013593506060870135620013cd8162001656565b9250608087013567ffffffffffffffff80821115620013ea578384fd5b620013f88a838b01620010e2565b935060a08901359150808211156200140e578283fd5b506200141d89828a01620010e2565b9150509295509295509295565b6000602082840312156200143c578081fd5b8151620011a8816200166f565b60008151808452815b81811015620014705760208185018101518683018201520162001452565b81811115620014825782602083870101525b50601f01601f19169290920160200192915050565b60006020808301818452808551808352604092508286019150828160051b870101848801865b838110156200155557603f19898403018552815160c08151818652620014e68287018262001449565b915050888201518582038a87015262001500828262001449565b838a015160ff16878b01526060808501516001600160a01b03908116918901919091526080808601519091169088015260a09384015161ffff16939096019290925250509386019390860190600101620014bd565b509098975050505050505050565b602081526000620011a8602083018462001449565b6040815260006200158d604083018562001449565b8281036020840152620015a1818562001449565b95945050505050565b61ffff9490941684526001600160a01b039283166020850152604084019190915216606082015260800190565b6040516060810167ffffffffffffffff81118282101715620015fd57620015fd62001640565b60405290565b600181811c908216806200161857607f821691505b602082108114156200163a57634e487b7160e01b600052602260045260246000fd5b50919050565b634e487b7160e01b600052604160045260246000fd5b6001600160a01b03811681146200166c57600080fd5b50565b60ff811681146200166c57600080fdfe60806040523480156200001157600080fd5b5060405162001dc138038062001dc183398101604081905262000034916200039b565b8151829082906200004d90600590602085019062000242565b5080516200006390600690602084019062000242565b50506007805460ff19169055506200007d600033620000dd565b620000a97f9f2df0fed2c77648de5860a4cc508cd0818c85b8b8a1ab4ceeef8d981c8956a633620000dd565b620000d57f65d7a28e3265b37a6474929f336521b332c1681b933f6cb9f3376673440d862a33620000dd565b505062000455565b620000e98282620000ed565b5050565b6200010482826200013060201b6200096e1760201c565b60008281526001602090815260409091206200012b918390620009f2620001d0821b17901c565b505050565b6000828152602081815260408083206001600160a01b038516845290915290205460ff16620000e9576000828152602081815260408083206001600160a01b03851684529091529020805460ff191660011790556200018c3390565b6001600160a01b0316816001600160a01b0316837f2f8788117e7eff1d82e926ec794901d17c78024a50270940304540a733656f0d60405160405180910390a45050565b6000620001e7836001600160a01b038416620001f0565b90505b92915050565b60008181526001830160205260408120546200023957508154600181810184556000848152602080822090930184905584548482528286019093526040902091909155620001ea565b506000620001ea565b828054620002509062000402565b90600052602060002090601f016020900481019282620002745760008555620002bf565b82601f106200028f57805160ff1916838001178555620002bf565b82800160010185558215620002bf579182015b82811115620002bf578251825591602001919060010190620002a2565b50620002cd929150620002d1565b5090565b5b80821115620002cd5760008155600101620002d2565b600082601f830112620002f9578081fd5b81516001600160401b03808211156200031657620003166200043f565b604051601f8301601f19908116603f011681019082821181831017156200034157620003416200043f565b816040528381526020925086838588010111156200035d578485fd5b8491505b8382101562000380578582018301518183018401529082019062000361565b838211156200039157848385830101525b9695505050505050565b60008060408385031215620003ae578182fd5b82516001600160401b0380821115620003c5578384fd5b620003d386838701620002e8565b93506020850151915080821115620003e9578283fd5b50620003f885828601620002e8565b9150509250929050565b600181811c908216806200041757607f821691505b602082108114156200043957634e487b7160e01b600052602260045260246000fd5b50919050565b634e487b7160e01b600052604160045260246000fd5b61195c80620004656000396000f3fe608060405234801561001057600080fd5b50600436106101c45760003560e01c806370a08231116100f9578063a457c2d711610097578063d539139311610071578063d5391393146103af578063d547741f146103d6578063dd62ed3e146103e9578063e63ab1e91461042257600080fd5b8063a457c2d714610376578063a9059cbb14610389578063ca15c8731461039c57600080fd5b80639010d07c116100d35780639010d07c1461032857806391d148541461035357806395d89b4114610366578063a217fddf1461036e57600080fd5b806370a08231146102e457806379cc67901461030d5780638456cb591461032057600080fd5b8063313ce567116101665780633f4ba83a116101405780633f4ba83a146102ab57806340c10f19146102b357806342966c68146102c65780635c975abb146102d957600080fd5b8063313ce5671461027657806336568abe14610285578063395093511461029857600080fd5b806318160ddd116101a257806318160ddd1461021957806323b872dd1461022b578063248a9ca31461023e5780632f2ff15d1461026157600080fd5b806301ffc9a7146101c957806306fdde03146101f1578063095ea7b314610206575b600080fd5b6101dc6101d7366004611774565b610449565b60405190151581526020015b60405180910390f35b6101f9610474565b6040516101e89190611811565b6101dc6102143660046116f0565b610506565b6004545b6040519081526020016101e8565b6101dc6102393660046116b5565b61051e565b61021d61024c366004611719565b60009081526020819052604090206001015490565b61027461026f366004611731565b610542565b005b604051601281526020016101e8565b610274610293366004611731565b61056d565b6101dc6102a63660046116f0565b6105f0565b61027461062f565b6102746102c13660046116f0565b6106d5565b6102746102d4366004611719565b610774565b60075460ff166101dc565b61021d6102f2366004611669565b6001600160a01b031660009081526002602052604090205490565b61027461031b3660046116f0565b610781565b610274610796565b61033b610336366004611753565b61083a565b6040516001600160a01b0390911681526020016101e8565b6101dc610361366004611731565b610859565b6101f9610882565b61021d600081565b6101dc6103843660046116f0565b610891565b6101dc6103973660046116f0565b610923565b61021d6103aa366004611719565b610931565b61021d7f9f2df0fed2c77648de5860a4cc508cd0818c85b8b8a1ab4ceeef8d981c8956a681565b6102746103e4366004611731565b610948565b61021d6103f7366004611683565b6001600160a01b03918216600090815260036020908152604080832093909416825291909152205490565b61021d7f65d7a28e3265b37a6474929f336521b332c1681b933f6cb9f3376673440d862a81565b60006001600160e01b03198216635a05180f60e01b148061046e575061046e82610a07565b92915050565b606060058054610483906118d5565b80601f01602080910402602001604051908101604052809291908181526020018280546104af906118d5565b80156104fc5780601f106104d1576101008083540402835291602001916104fc565b820191906000526020600020905b8154815290600101906020018083116104df57829003601f168201915b5050505050905090565b600033610514818585610a3c565b5060019392505050565b60003361052c858285610b60565b610537858585610bf2565b506001949350505050565b60008281526020819052604090206001015461055e8133610dcb565b6105688383610e2f565b505050565b6001600160a01b03811633146105e25760405162461bcd60e51b815260206004820152602f60248201527f416363657373436f6e74726f6c3a2063616e206f6e6c792072656e6f756e636560448201526e103937b632b9903337b91039b2b63360891b60648201526084015b60405180910390fd5b6105ec8282610e51565b5050565b3360008181526003602090815260408083206001600160a01b0387168452909152812054909190610514908290869061062a908790611844565b610a3c565b6106597f65d7a28e3265b37a6474929f336521b332c1681b933f6cb9f3376673440d862a33610859565b6106cb5760405162461bcd60e51b815260206004820152603960248201527f45524332305072657365744d696e7465725061757365723a206d75737420686160448201527f76652070617573657220726f6c6520746f20756e70617573650000000000000060648201526084016105d9565b6106d3610e73565b565b6106ff7f9f2df0fed2c77648de5860a4cc508cd0818c85b8b8a1ab4ceeef8d981c8956a633610859565b61076a5760405162461bcd60e51b815260206004820152603660248201527f45524332305072657365744d696e7465725061757365723a206d7573742068616044820152751d99481b5a5b9d195c881c9bdb19481d1bc81b5a5b9d60521b60648201526084016105d9565b6105ec8282610f06565b61077e3382610ff1565b50565b61078c823383610b60565b6105ec8282610ff1565b6107c07f65d7a28e3265b37a6474929f336521b332c1681b933f6cb9f3376673440d862a33610859565b6108325760405162461bcd60e51b815260206004820152603760248201527f45524332305072657365744d696e7465725061757365723a206d75737420686160448201527f76652070617573657220726f6c6520746f20706175736500000000000000000060648201526084016105d9565b6106d361114b565b600082815260016020526040812061085290836111c6565b9392505050565b6000918252602082815260408084206001600160a01b0393909316845291905290205460ff1690565b606060068054610483906118d5565b3360008181526003602090815260408083206001600160a01b0387168452909152812054909190838110156109165760405162461bcd60e51b815260206004820152602560248201527f45524332303a2064656372656173656420616c6c6f77616e63652062656c6f77604482015264207a65726f60d81b60648201526084016105d9565b6105378286868403610a3c565b600033610514818585610bf2565b600081815260016020526040812061046e906111d2565b6000828152602081905260409020600101546109648133610dcb565b6105688383610e51565b6109788282610859565b6105ec576000828152602081815260408083206001600160a01b03851684529091529020805460ff191660011790556109ae3390565b6001600160a01b0316816001600160a01b0316837f2f8788117e7eff1d82e926ec794901d17c78024a50270940304540a733656f0d60405160405180910390a45050565b6000610852836001600160a01b0384166111dc565b60006001600160e01b03198216637965db0b60e01b148061046e57506301ffc9a760e01b6001600160e01b031983161461046e565b6001600160a01b038316610a9e5760405162461bcd60e51b8152602060048201526024808201527f45524332303a20617070726f76652066726f6d20746865207a65726f206164646044820152637265737360e01b60648201526084016105d9565b6001600160a01b038216610aff5760405162461bcd60e51b815260206004820152602260248201527f45524332303a20617070726f766520746f20746865207a65726f206164647265604482015261737360f01b60648201526084016105d9565b6001600160a01b0383811660008181526003602090815260408083209487168084529482529182902085905590518481527f8c5be1e5ebec7d5bd14f71427d1e84f3dd0314c0f7b2291e5b200ac8c7c3b925910160405180910390a3505050565b6001600160a01b038381166000908152600360209081526040808320938616835292905220546000198114610bec5781811015610bdf5760405162461bcd60e51b815260206004820152601d60248201527f45524332303a20696e73756666696369656e7420616c6c6f77616e636500000060448201526064016105d9565b610bec8484848403610a3c565b50505050565b6001600160a01b038316610c565760405162461bcd60e51b815260206004820152602560248201527f45524332303a207472616e736665722066726f6d20746865207a65726f206164604482015264647265737360d81b60648201526084016105d9565b6001600160a01b038216610cb85760405162461bcd60e51b815260206004820152602360248201527f45524332303a207472616e7366657220746f20746865207a65726f206164647260448201526265737360e81b60648201526084016105d9565b610cc383838361122b565b6001600160a01b03831660009081526002602052604090205481811015610d3b5760405162461bcd60e51b815260206004820152602660248201527f45524332303a207472616e7366657220616d6f756e7420657863656564732062604482015265616c616e636560d01b60648201526084016105d9565b6001600160a01b03808516600090815260026020526040808220858503905591851681529081208054849290610d72908490611844565b92505081905550826001600160a01b0316846001600160a01b03167fddf252ad1be2c89b69c2b068fc378daa952ba7f163c4a11628f55a4df523b3ef84604051610dbe91815260200190565b60405180910390a3610bec565b610dd58282610859565b6105ec57610ded816001600160a01b03166014611236565b610df8836020611236565b604051602001610e0992919061179c565b60408051601f198184030181529082905262461bcd60e51b82526105d991600401611811565b610e39828261096e565b600082815260016020526040902061056890826109f2565b610e5b8282611418565b6000828152600160205260409020610568908261147d565b60075460ff16610ebc5760405162461bcd60e51b815260206004820152601460248201527314185d5cd8589b194e881b9bdd081c185d5cd95960621b60448201526064016105d9565b6007805460ff191690557f5db9ee0a495bf2e6ff9c91a7834c1ba4fdd244a5e8aa4e537bd38aeae4b073aa335b6040516001600160a01b03909116815260200160405180910390a1565b6001600160a01b038216610f5c5760405162461bcd60e51b815260206004820152601f60248201527f45524332303a206d696e7420746f20746865207a65726f20616464726573730060448201526064016105d9565b610f686000838361122b565b8060046000828254610f7a9190611844565b90915550506001600160a01b03821660009081526002602052604081208054839290610fa7908490611844565b90915550506040518181526001600160a01b038316906000907fddf252ad1be2c89b69c2b068fc378daa952ba7f163c4a11628f55a4df523b3ef9060200160405180910390a35050565b6001600160a01b0382166110515760405162461bcd60e51b815260206004820152602160248201527f45524332303a206275726e2066726f6d20746865207a65726f206164647265736044820152607360f81b60648201526084016105d9565b61105d8260008361122b565b6001600160a01b038216600090815260026020526040902054818110156110d15760405162461bcd60e51b815260206004820152602260248201527f45524332303a206275726e20616d6f756e7420657863656564732062616c616e604482015261636560f01b60648201526084016105d9565b6001600160a01b038316600090815260026020526040812083830390556004805484929061110090849061187b565b90915550506040518281526000906001600160a01b038516907fddf252ad1be2c89b69c2b068fc378daa952ba7f163c4a11628f55a4df523b3ef9060200160405180910390a3505050565b60075460ff16156111915760405162461bcd60e51b815260206004820152601060248201526f14185d5cd8589b194e881c185d5cd95960821b60448201526064016105d9565b6007805460ff191660011790557f62e78cea01bee320cd4e420270b5ea74000d11b0c9f74754ebdbfc544b05a258610ee93390565b60006108528383611492565b600061046e825490565b60008181526001830160205260408120546112235750815460018181018455600084815260208082209093018490558454848252828601909352604090209190915561046e565b50600061046e565b6105688383836114ca565b6060600061124583600261185c565b611250906002611844565b67ffffffffffffffff81111561127657634e487b7160e01b600052604160045260246000fd5b6040519080825280601f01601f1916602001820160405280156112a0576020820181803683370190505b509050600360fc1b816000815181106112c957634e487b7160e01b600052603260045260246000fd5b60200101906001600160f81b031916908160001a905350600f60fb1b8160018151811061130657634e487b7160e01b600052603260045260246000fd5b60200101906001600160f81b031916908160001a905350600061132a84600261185c565b611335906001611844565b90505b60018111156113c9576f181899199a1a9b1b9c1cb0b131b232b360811b85600f166010811061137757634e487b7160e01b600052603260045260246000fd5b1a60f81b82828151811061139b57634e487b7160e01b600052603260045260246000fd5b60200101906001600160f81b031916908160001a90535060049490941c936113c2816118be565b9050611338565b5083156108525760405162461bcd60e51b815260206004820181905260248201527f537472696e67733a20686578206c656e67746820696e73756666696369656e7460448201526064016105d9565b6114228282610859565b156105ec576000828152602081815260408083206001600160a01b0385168085529252808320805460ff1916905551339285917ff6391f5c32d9c69d2a47ea670b442974b53935d1edc7fd64eb21e047a839171b9190a45050565b6000610852836001600160a01b038416611530565b60008260000182815481106114b757634e487b7160e01b600052603260045260246000fd5b9060005260206000200154905092915050565b60075460ff16156105685760405162461bcd60e51b815260206004820152602a60248201527f45524332305061757361626c653a20746f6b656e207472616e736665722077686044820152691a5b19481c185d5cd95960b21b60648201526084016105d9565b6000818152600183016020526040812054801561164357600061155460018361187b565b85549091506000906115689060019061187b565b90508181146115e957600086600001828154811061159657634e487b7160e01b600052603260045260246000fd5b90600052602060002001549050808760000184815481106115c757634e487b7160e01b600052603260045260246000fd5b6000918252602080832090910192909255918252600188019052604090208390555b855486908061160857634e487b7160e01b600052603160045260246000fd5b60019003818190600052602060002001600090559055856001016000868152602001908152602001600020600090556001935050505061046e565b600091505061046e565b80356001600160a01b038116811461166457600080fd5b919050565b60006020828403121561167a578081fd5b6108528261164d565b60008060408385031215611695578081fd5b61169e8361164d565b91506116ac6020840161164d565b90509250929050565b6000806000606084860312156116c9578081fd5b6116d28461164d565b92506116e06020850161164d565b9150604084013590509250925092565b60008060408385031215611702578182fd5b61170b8361164d565b946020939093013593505050565b60006020828403121561172a578081fd5b5035919050565b60008060408385031215611743578182fd5b823591506116ac6020840161164d565b60008060408385031215611765578182fd5b50508035926020909101359150565b600060208284031215611785578081fd5b81356001600160e01b031981168114610852578182fd5b7f416363657373436f6e74726f6c3a206163636f756e74200000000000000000008152600083516117d4816017850160208801611892565b7001034b99036b4b9b9b4b733903937b6329607d1b6017918401918201528351611805816028840160208801611892565b01602801949350505050565b6020815260008251806020840152611830816040850160208701611892565b601f01601f19169190910160400192915050565b6000821982111561185757611857611910565b500190565b600081600019048311821515161561187657611876611910565b500290565b60008282101561188d5761188d611910565b500390565b60005b838110156118ad578181015183820152602001611895565b83811115610bec5750506000910152565b6000816118cd576118cd611910565b506000190190565b600181811c908216806118e957607f821691505b6020821081141561190a57634e487b7160e01b600052602260045260246000fd5b50919050565b634e487b7160e01b600052601160045260246000fdfea2646970667358221220b6476edcc88d00f20724e89b96bd5a85a1f5ba28273db11a320128accc6c620664736f6c63430008040033a2646970667358221220eeda406e3be1abd736ce5c558d0399dda52af7c47753620fb5c6a598cbbf397464736f6c63430008040033",
  "linkReferences": {
    "contracts/Utils.sol": {
      "Utils": [
        {
          "length": 20,
          "start": 708
        },
        {
          "length": 20,
          "start": 935
        },
        {
          "length": 20,
          "start": 1089
        },
        {
          "length": 20,
          "start": 1665
        },
        {
          "length": 20,
          "start": 1892
        },
        {
          "length": 20,
          "start": 2046
        }
      ]
    }
  },
  "deployedLinkReferences": {
    "contracts/Utils.sol": {
      "Utils": [
        {
          "length": 20,
          "start": 563
        },
        {
          "length": 20,
          "start": 790
        },
        {
          "length": 20,
          "start": 944
        },
        {
          "length": 20,
          "start": 1520
        },
        {
          "length": 20,
          "start": 1747
        },
        {
          "length": 20,
          "start": 1901
        }
      ]
    }
  }
}