{
  "_format": "hh-sol-artifact-1",
  "contractName": "Escrow",
  "sourceName": "contracts/Escrow.sol",
  "abi": [
    {
      "inputs": [
        {
          "internalType": "contract AcmeToken",
          "name": "acme",
          "type": "address"
        }
      ],
      "stateMutability": "nonpayable",
      "type": "constructor"
    },
    {
      "anonymous": false,
      "inputs": [
        {
          "indexed": false,
          "internalType": "address",
          "name": "sender",
          "type": "address"
        },
        {
          "indexed": false,
          "internalType": "uint256",
          "name": "amount",
          "type": "uint256"
        }
      ],
      "name": "ClaimSuccess",
      "type": "event"
    },
    {
      "anonymous": false,
      "inputs": [
        {
          "indexed": false,
          "internalType": "address",
          "name": "sender",
          "type": "address"
        },
        {
          "indexed": false,
          "internalType": "address",
          "name": "escrow",
          "type": "address"
        },
        {
          "indexed": false,
          "internalType": "uint256",
          "name": "amount",
          "type": "uint256"
        }
      ],
      "name": "LockSuccess",
      "type": "event"
    },
    {
      "anonymous": false,
      "inputs": [
        {
          "indexed": true,
          "internalType": "address",
          "name": "previousOwner",
          "type": "address"
        },
        {
          "indexed": true,
          "internalType": "address",
          "name": "newOwner",
          "type": "address"
        }
      ],
      "name": "OwnershipTransferred",
      "type": "event"
    },
    {
      "inputs": [],
      "name": "claimAll",
      "outputs": [],
      "stateMutability": "nonpayable",
      "type": "function"
    },
    {
      "inputs": [
        {
          "internalType": "uint256",
          "name": "amount",
          "type": "uint256"
        }
      ],
      "name": "lock",
      "outputs": [],
      "stateMutability": "nonpayable",
      "type": "function"
    },
    {
      "inputs": [],
      "name": "owner",
      "outputs": [
        {
          "internalType": "address",
          "name": "",
          "type": "address"
        }
      ],
      "stateMutability": "view",
      "type": "function"
    },
    {
      "inputs": [],
      "name": "renounceOwnership",
      "outputs": [],
      "stateMutability": "nonpayable",
      "type": "function"
    },
    {
      "inputs": [
        {
          "internalType": "address",
          "name": "wallet",
          "type": "address"
        },
        {
          "internalType": "uint256",
          "name": "amount",
          "type": "uint256"
        }
      ],
      "name": "setBalance",
      "outputs": [],
      "stateMutability": "nonpayable",
      "type": "function"
    },
    {
      "inputs": [
        {
          "internalType": "address",
          "name": "newOwner",
          "type": "address"
        }
      ],
      "name": "transferOwnership",
      "outputs": [],
      "stateMutability": "nonpayable",
      "type": "function"
    }
  ],
  "bytecode": "0x608060405234801561001057600080fd5b5060405162000e1138038062000e1183398181016040528101906100349190610178565b61005061004561009760201b60201c565b61009f60201b60201c565b80600160006101000a81548173ffffffffffffffffffffffffffffffffffffffff021916908373ffffffffffffffffffffffffffffffffffffffff160217905550506101fc565b600033905090565b60008060009054906101000a900473ffffffffffffffffffffffffffffffffffffffff169050816000806101000a81548173ffffffffffffffffffffffffffffffffffffffff021916908373ffffffffffffffffffffffffffffffffffffffff1602179055508173ffffffffffffffffffffffffffffffffffffffff168173ffffffffffffffffffffffffffffffffffffffff167f8be0079c531659141344cd1fd0a4f28419497f9722a3daafe3b4186f6b6457e060405160405180910390a35050565b600081519050610172816101e5565b92915050565b60006020828403121561018a57600080fd5b600061019884828501610163565b91505092915050565b60006101ac826101c5565b9050919050565b60006101be826101a1565b9050919050565b600073ffffffffffffffffffffffffffffffffffffffff82169050919050565b6101ee816101b3565b81146101f957600080fd5b50565b610c05806200020c6000396000f3fe608060405234801561001057600080fd5b50600436106100625760003560e01c8063715018a6146100675780638da5cb5b14610071578063d1058e591461008f578063dd46706414610099578063e30443bc146100b5578063f2fde38b146100d1575b600080fd5b61006f6100ed565b005b610079610175565b604051610086919061096c565b60405180910390f35b61009761019e565b005b6100b360048036038101906100ae9190610899565b6103b8565b005b6100cf60048036038101906100ca9190610834565b610544565b005b6100eb60048036038101906100e6919061080b565b610608565b005b6100f5610700565b73ffffffffffffffffffffffffffffffffffffffff16610113610175565b73ffffffffffffffffffffffffffffffffffffffff1614610169576040517f08c379a000000000000000000000000000000000000000000000000000000000815260040161016090610a27565b60405180910390fd5b6101736000610708565b565b60008060009054906101000a900473ffffffffffffffffffffffffffffffffffffffff16905090565b6000600260006101ac610700565b73ffffffffffffffffffffffffffffffffffffffff1673ffffffffffffffffffffffffffffffffffffffff1681526020019081526020016000205411610227576040517f08c379a000000000000000000000000000000000000000000000000000000000815260040161021e906109e7565b60405180910390fd5b600060026000610235610700565b73ffffffffffffffffffffffffffffffffffffffff1673ffffffffffffffffffffffffffffffffffffffff168152602001908152602001600020549050600060026000610280610700565b73ffffffffffffffffffffffffffffffffffffffff1673ffffffffffffffffffffffffffffffffffffffff16815260200190815260200160002081905550600160009054906101000a900473ffffffffffffffffffffffffffffffffffffffff1673ffffffffffffffffffffffffffffffffffffffff1663a9059cbb610304610700565b836040518363ffffffff1660e01b81526004016103229291906109be565b602060405180830381600087803b15801561033c57600080fd5b505af1158015610350573d6000803e3d6000fd5b505050506040513d601f19601f820116820180604052508101906103749190610870565b507fd4c9d8ecc8bf1be6dc655169b10dbe7d7f935d65175441b40c60e52e529818f361039e610700565b826040516103ad9291906109be565b60405180910390a150565b600081116103fb576040517f08c379a00000000000000000000000000000000000000000000000000000000081526004016103f290610a47565b60405180910390fd5b600160009054906101000a900473ffffffffffffffffffffffffffffffffffffffff1673ffffffffffffffffffffffffffffffffffffffff166323b872dd610441610700565b30846040518463ffffffff1660e01b815260040161046193929190610987565b602060405180830381600087803b15801561047b57600080fd5b505af115801561048f573d6000803e3d6000fd5b505050506040513d601f19601f820116820180604052508101906104b39190610870565b5080600260006104c1610700565b73ffffffffffffffffffffffffffffffffffffffff1673ffffffffffffffffffffffffffffffffffffffff168152602001908152602001600020819055507f19e44d2f9c2332390c029cd0cd05e9c6c8d6784cf2770000a733c12418be2a3f610528610700565b308360405161053993929190610987565b60405180910390a150565b61054c610700565b73ffffffffffffffffffffffffffffffffffffffff1661056a610175565b73ffffffffffffffffffffffffffffffffffffffff16146105c0576040517f08c379a00000000000000000000000000000000000000000000000000000000081526004016105b790610a27565b60405180910390fd5b80600260008473ffffffffffffffffffffffffffffffffffffffff1673ffffffffffffffffffffffffffffffffffffffff168152602001908152602001600020819055505050565b610610610700565b73ffffffffffffffffffffffffffffffffffffffff1661062e610175565b73ffffffffffffffffffffffffffffffffffffffff1614610684576040517f08c379a000000000000000000000000000000000000000000000000000000000815260040161067b90610a27565b60405180910390fd5b600073ffffffffffffffffffffffffffffffffffffffff168173ffffffffffffffffffffffffffffffffffffffff1614156106f4576040517f08c379a00000000000000000000000000000000000000000000000000000000081526004016106eb90610a07565b60405180910390fd5b6106fd81610708565b50565b600033905090565b60008060009054906101000a900473ffffffffffffffffffffffffffffffffffffffff169050816000806101000a81548173ffffffffffffffffffffffffffffffffffffffff021916908373ffffffffffffffffffffffffffffffffffffffff1602179055508173ffffffffffffffffffffffffffffffffffffffff168173ffffffffffffffffffffffffffffffffffffffff167f8be0079c531659141344cd1fd0a4f28419497f9722a3daafe3b4186f6b6457e060405160405180910390a35050565b6000813590506107db81610b8a565b92915050565b6000815190506107f081610ba1565b92915050565b60008135905061080581610bb8565b92915050565b60006020828403121561081d57600080fd5b600061082b848285016107cc565b91505092915050565b6000806040838503121561084757600080fd5b6000610855858286016107cc565b9250506020610866858286016107f6565b9150509250929050565b60006020828403121561088257600080fd5b6000610890848285016107e1565b91505092915050565b6000602082840312156108ab57600080fd5b60006108b9848285016107f6565b91505092915050565b6108cb81610a78565b82525050565b60006108de601083610a67565b91506108e982610ac0565b602082019050919050565b6000610901602683610a67565b915061090c82610ae9565b604082019050919050565b6000610924602083610a67565b915061092f82610b38565b602082019050919050565b6000610947602083610a67565b915061095282610b61565b602082019050919050565b61096681610ab6565b82525050565b600060208201905061098160008301846108c2565b92915050565b600060608201905061099c60008301866108c2565b6109a960208301856108c2565b6109b6604083018461095d565b949350505050565b60006040820190506109d360008301856108c2565b6109e0602083018461095d565b9392505050565b60006020820190508181036000830152610a00816108d1565b9050919050565b60006020820190508181036000830152610a20816108f4565b9050919050565b60006020820190508181036000830152610a4081610917565b9050919050565b60006020820190508181036000830152610a608161093a565b9050919050565b600082825260208201905092915050565b6000610a8382610a96565b9050919050565b60008115159050919050565b600073ffffffffffffffffffffffffffffffffffffffff82169050919050565b6000819050919050565b7f4e6f7468696e6720746f20636c61696d00000000000000000000000000000000600082015250565b7f4f776e61626c653a206e6577206f776e657220697320746865207a65726f206160008201527f6464726573730000000000000000000000000000000000000000000000000000602082015250565b7f4f776e61626c653a2063616c6c6572206973206e6f7420746865206f776e6572600082015250565b7f416d6f756e74206d7573742062652067726561746564207468656e207a65726f600082015250565b610b9381610a78565b8114610b9e57600080fd5b50565b610baa81610a8a565b8114610bb557600080fd5b50565b610bc181610ab6565b8114610bcc57600080fd5b5056fea2646970667358221220df5c50ec9863298f57f1c2cbdf97635eb5cc07044075bf2c22fef6b62182700e64736f6c63430008040033",
  "linkReferences": {},
  "deployedLinkReferences": {}
}