{
  "_format": "hh-sol-artifact-1",
  "contractName": "MainEscrow",
  "sourceName": "contracts/MainEscrow.sol",
  "abi": [
    {
      "anonymous": false,
      "inputs": [
        {
          "indexed": false,
          "internalType": "address",
          "name": "sender",
          "type": "address"
        },
        {
          "indexed": false,
          "internalType": "address",
          "name": "token",
          "type": "address"
        },
        {
          "indexed": false,
          "internalType": "uint256",
          "name": "amount",
          "type": "uint256"
        }
      ],
      "name": "LockSuccess",
      "type": "event"
    },
    {
      "anonymous": false,
      "inputs": [
        {
          "indexed": false,
          "internalType": "address",
          "name": "sender",
          "type": "address"
        },
        {
          "indexed": false,
          "internalType": "uint256",
          "name": "amount",
          "type": "uint256"
        }
      ],
      "name": "ReleaseSuccess",
      "type": "event"
    },
    {
      "inputs": [
        {
          "internalType": "contract IERC20",
          "name": "token",
          "type": "address"
        },
        {
          "internalType": "uint256",
          "name": "amount",
          "type": "uint256"
        }
      ],
      "name": "lock",
      "outputs": [],
      "stateMutability": "nonpayable",
      "type": "function"
    },
    {
      "inputs": [],
      "name": "lockEth",
      "outputs": [],
      "stateMutability": "payable",
      "type": "function"
    },
    {
      "inputs": [
        {
          "internalType": "contract IERC20",
          "name": "token",
          "type": "address"
        },
        {
          "internalType": "uint256",
          "name": "amount",
          "type": "uint256"
        }
      ],
      "name": "release",
      "outputs": [],
      "stateMutability": "nonpayable",
      "type": "function"
    },
    {
      "inputs": [
        {
          "internalType": "uint256",
          "name": "amount",
          "type": "uint256"
        }
      ],
      "name": "releaseEth",
      "outputs": [],
      "stateMutability": "nonpayable",
      "type": "function"
    },
    {
      "stateMutability": "payable",
      "type": "receive"
    }
  ],
  "bytecode": "0x608060405234801561001057600080fd5b50610d91806100206000396000f3fe6080604052600436106100435760003560e01c80630357371d14610057578063282d3fdf14610080578063d7611cc1146100a9578063fd4549ef146100b357610052565b36610052576100506100dc565b005b600080fd5b34801561006357600080fd5b5061007e6004803603810190610079919061090d565b6101ae565b005b34801561008c57600080fd5b506100a760048036038101906100a2919061090d565b610460565b005b6100b16100dc565b005b3480156100bf57600080fd5b506100da60048036038101906100d59190610949565b610768565b005b6000341161011f576040517f08c379a000000000000000000000000000000000000000000000000000000000815260040161011690610ace565b60405180910390fd5b346001600061012c610888565b73ffffffffffffffffffffffffffffffffffffffff1673ffffffffffffffffffffffffffffffffffffffff168152602001908152602001600020819055507f19e44d2f9c2332390c029cd0cd05e9c6c8d6784cf2770000a733c12418be2a3f610193610888565b30346040516101a493929190610a6e565b60405180910390a1565b806000806101ba610888565b73ffffffffffffffffffffffffffffffffffffffff1673ffffffffffffffffffffffffffffffffffffffff16815260200190815260200160002060008473ffffffffffffffffffffffffffffffffffffffff1673ffffffffffffffffffffffffffffffffffffffff168152602001908152602001600020541015610273576040517f08c379a000000000000000000000000000000000000000000000000000000000815260040161026a90610b2e565b60405180910390fd5b8060008061027f610888565b73ffffffffffffffffffffffffffffffffffffffff1673ffffffffffffffffffffffffffffffffffffffff16815260200190815260200160002060008473ffffffffffffffffffffffffffffffffffffffff1673ffffffffffffffffffffffffffffffffffffffff168152602001908152602001600020546103019190610bb5565b60008061030c610888565b73ffffffffffffffffffffffffffffffffffffffff1673ffffffffffffffffffffffffffffffffffffffff16815260200190815260200160002060008473ffffffffffffffffffffffffffffffffffffffff1673ffffffffffffffffffffffffffffffffffffffff168152602001908152602001600020819055508173ffffffffffffffffffffffffffffffffffffffff1663a9059cbb6103ab610888565b836040518363ffffffff1660e01b81526004016103c9929190610aa5565b602060405180830381600087803b1580156103e357600080fd5b505af11580156103f7573d6000803e3d6000fd5b505050506040513d601f19601f8201168201806040525081019061041b91906108e4565b507f2968a9df266ef120c45ab761538d9a5c084c33618aa102bc2f12b050f63f322d610445610888565b82604051610454929190610aa5565b60405180910390a15050565b600081116104a3576040517f08c379a000000000000000000000000000000000000000000000000000000000815260040161049a90610b0e565b60405180910390fd5b808273ffffffffffffffffffffffffffffffffffffffff1663dd62ed3e6104c8610888565b306040518363ffffffff1660e01b81526004016104e6929190610a45565b60206040518083038186803b1580156104fe57600080fd5b505afa158015610512573d6000803e3d6000fd5b505050506040513d601f19601f820116820180604052508101906105369190610972565b1015610577576040517f08c379a000000000000000000000000000000000000000000000000000000000815260040161056e90610aee565b60405180910390fd5b8173ffffffffffffffffffffffffffffffffffffffff166323b872dd61059b610888565b30846040518463ffffffff1660e01b81526004016105bb93929190610a6e565b602060405180830381600087803b1580156105d557600080fd5b505af11580156105e9573d6000803e3d6000fd5b505050506040513d601f19601f8201168201806040525081019061060d91906108e4565b508060008061061a610888565b73ffffffffffffffffffffffffffffffffffffffff1673ffffffffffffffffffffffffffffffffffffffff16815260200190815260200160002060008473ffffffffffffffffffffffffffffffffffffffff1673ffffffffffffffffffffffffffffffffffffffff1681526020019081526020016000205461069c9190610b5f565b6000806106a7610888565b73ffffffffffffffffffffffffffffffffffffffff1673ffffffffffffffffffffffffffffffffffffffff16815260200190815260200160002060008473ffffffffffffffffffffffffffffffffffffffff1673ffffffffffffffffffffffffffffffffffffffff168152602001908152602001600020819055507f19e44d2f9c2332390c029cd0cd05e9c6c8d6784cf2770000a733c12418be2a3f61074b610888565b838360405161075c93929190610a6e565b60405180910390a15050565b8060016000610775610888565b73ffffffffffffffffffffffffffffffffffffffff1673ffffffffffffffffffffffffffffffffffffffff1681526020019081526020016000205410156107f1576040517f08c379a00000000000000000000000000000000000000000000000000000000081526004016107e890610b2e565b60405180910390fd5b60006107fb610888565b90508073ffffffffffffffffffffffffffffffffffffffff166108fc839081150290604051600060405180830381858888f19350505050158015610843573d6000803e3d6000fd5b507f2968a9df266ef120c45ab761538d9a5c084c33618aa102bc2f12b050f63f322d61086d610888565b8360405161087c929190610aa5565b60405180910390a15050565b600033905090565b60008151905061089f81610d16565b92915050565b6000813590506108b481610d2d565b92915050565b6000813590506108c981610d44565b92915050565b6000815190506108de81610d44565b92915050565b6000602082840312156108f657600080fd5b600061090484828501610890565b91505092915050565b6000806040838503121561092057600080fd5b600061092e858286016108a5565b925050602061093f858286016108ba565b9150509250929050565b60006020828403121561095b57600080fd5b6000610969848285016108ba565b91505092915050565b60006020828403121561098457600080fd5b6000610992848285016108cf565b91505092915050565b6109a481610be9565b82525050565b60006109b7601283610b4e565b91506109c282610c72565b602082019050919050565b60006109da601483610b4e565b91506109e582610c9b565b602082019050919050565b60006109fd600e83610b4e565b9150610a0882610cc4565b602082019050919050565b6000610a20601983610b4e565b9150610a2b82610ced565b602082019050919050565b610a3f81610c39565b82525050565b6000604082019050610a5a600083018561099b565b610a67602083018461099b565b9392505050565b6000606082019050610a83600083018661099b565b610a90602083018561099b565b610a9d6040830184610a36565b949350505050565b6000604082019050610aba600083018561099b565b610ac76020830184610a36565b9392505050565b60006020820190508181036000830152610ae7816109aa565b9050919050565b60006020820190508181036000830152610b07816109cd565b9050919050565b60006020820190508181036000830152610b27816109f0565b9050919050565b60006020820190508181036000830152610b4781610a13565b9050919050565b600082825260208201905092915050565b6000610b6a82610c39565b9150610b7583610c39565b9250827fffffffffffffffffffffffffffffffffffffffffffffffffffffffffffffffff03821115610baa57610ba9610c43565b5b828201905092915050565b6000610bc082610c39565b9150610bcb83610c39565b925082821015610bde57610bdd610c43565b5b828203905092915050565b6000610bf482610c19565b9050919050565b60008115159050919050565b6000610c1282610be9565b9050919050565b600073ffffffffffffffffffffffffffffffffffffffff82169050919050565b6000819050919050565b7f4e487b7100000000000000000000000000000000000000000000000000000000600052601160045260246000fd5b7f43616e206e6f74206c6f636b2030204554480000000000000000000000000000600082015250565b7f4e6f7420656e6f75676820616c6c6f77616e6365000000000000000000000000600082015250565b7f43616e206e6f74206c6f636b2030000000000000000000000000000000000000600082015250565b7f4e6f7420656e6f756768206c6f636b65642062616c616e636500000000000000600082015250565b610d1f81610bfb565b8114610d2a57600080fd5b50565b610d3681610c07565b8114610d4157600080fd5b50565b610d4d81610c39565b8114610d5857600080fd5b5056fea264697066735822122038c338d9d1a954131a6fcd73c1c23b96d5646b2034d9ab27a709ab7b7892853464736f6c63430008040033",
  "linkReferences": {},
  "deployedLinkReferences": {}
}