{
  "_format": "hh-sol-artifact-1",
  "contractName": "MainEscrow",
  "sourceName": "contracts/MainEscrow.sol",
  "abi": [
    {
      "anonymous": false,
      "inputs": [
        {
          "indexed": false,
          "internalType": "address",
          "name": "sender",
          "type": "address"
        },
        {
          "indexed": false,
          "internalType": "address",
          "name": "token",
          "type": "address"
        },
        {
          "indexed": false,
          "internalType": "uint256",
          "name": "amount",
          "type": "uint256"
        }
      ],
      "name": "LockSuccess",
      "type": "event"
    },
    {
      "anonymous": false,
      "inputs": [
        {
          "indexed": false,
          "internalType": "address",
          "name": "sender",
          "type": "address"
        },
        {
          "indexed": false,
          "internalType": "uint256",
          "name": "amount",
          "type": "uint256"
        }
      ],
      "name": "ReleaseSuccess",
      "type": "event"
    },
    {
      "inputs": [
        {
          "internalType": "contract IERC20",
          "name": "token",
          "type": "address"
        },
        {
          "internalType": "uint256",
          "name": "amount",
          "type": "uint256"
        }
      ],
      "name": "lock",
      "outputs": [],
      "stateMutability": "nonpayable",
      "type": "function"
    },
    {
      "inputs": [],
      "name": "lockEth",
      "outputs": [],
      "stateMutability": "payable",
      "type": "function"
    },
    {
      "inputs": [
        {
          "internalType": "contract IERC20",
          "name": "token",
          "type": "address"
        },
        {
          "internalType": "uint256",
          "name": "amount",
          "type": "uint256"
        }
      ],
      "name": "release",
      "outputs": [],
      "stateMutability": "nonpayable",
      "type": "function"
    },
    {
      "inputs": [
        {
          "internalType": "uint256",
          "name": "amount",
          "type": "uint256"
        }
      ],
      "name": "releaseEth",
      "outputs": [],
      "stateMutability": "nonpayable",
      "type": "function"
    },
    {
      "stateMutability": "payable",
      "type": "receive"
    }
  ],
  "bytecode": "0x608060405234801561001057600080fd5b506115a8806100206000396000f3fe6080604052600436106100435760003560e01c80630357371d14610083578063282d3fdf146100ac578063d7611cc1146100d5578063fd4549ef146100df5761007e565b3661007e576100747f458f78cc662722e1b87b2df15ea139e2144d5f0a8eecbca4a2bfa11215f2e28a60001b610108565b61007c61010b565b005b600080fd5b34801561008f57600080fd5b506100aa60048036038101906100a59190611124565b610369565b005b3480156100b857600080fd5b506100d360048036038101906100ce9190611124565b6107ff565b005b6100dd61010b565b005b3480156100eb57600080fd5b5061010660048036038101906101019190611160565b610d9b565b005b50565b6101377fbb642a8b3b79f30498de8f25292aefa78d583505079a8f2bf69e3038accb0f4f60001b610108565b6101637f7fdcde0df6f48c11515e62784ee91a3d5f9900296580150396ca562d3844f9d960001b610108565b61018f7f0fe5f17932359e0f678858db8a0bea3f0b03721e1141f36aa860859311c5ddf260001b610108565b6101bb7fe9406cb5c736a792a173db4b97fd2389b4e6993446262637a869dd7e6812886b60001b610108565b600034116101fe576040517f08c379a00000000000000000000000000000000000000000000000000000000081526004016101f5906112e5565b60405180910390fd5b61022a7f92355b1ac8e3d6f41a760b320728eebd16e9122bff735cd1028a8d7fca78e28c60001b610108565b6102567ffa69394e0666c30da685c3cd8c640ef72db288200209907f87188d7160142e2960001b610108565b6102827f335a816589ec1cbb248194e6a3dcec1ae54b037d82005277a186e9df2af9535660001b610108565b346001600061028f61109f565b73ffffffffffffffffffffffffffffffffffffffff1673ffffffffffffffffffffffffffffffffffffffff168152602001908152602001600020819055506102f97f6bde7724a33c4bb40025327e14c4fcc927723cfc2456e334bb647840ae2a27ed60001b610108565b6103257fedde062a77bdcff0dc434f492b61ff145dbc72618d0087b436db6772e39b419b60001b610108565b7f19e44d2f9c2332390c029cd0cd05e9c6c8d6784cf2770000a733c12418be2a3f61034e61109f565b303460405161035f93929190611285565b60405180910390a1565b6103957f91f8d8bb042f66021730535832fdfa30a7b7acac61755fdea30daf75b9fb966f60001b610108565b6103c17fbec209cb562b2629e4bb58a6f9e7ec0429b81d963b4c6eb8ade5aa1bf75326b960001b610108565b6103ed7f0a9608ebe22ac0e5197f93ff75c02a688c0a639aeab3b9026e2d60b96d7545c860001b610108565b6104197f636ba0062706e1d487ef09db54ec4d03398001d9adb7e08aa1c586b3c79a417960001b610108565b8060008061042561109f565b73ffffffffffffffffffffffffffffffffffffffff1673ffffffffffffffffffffffffffffffffffffffff16815260200190815260200160002060008473ffffffffffffffffffffffffffffffffffffffff1673ffffffffffffffffffffffffffffffffffffffff1681526020019081526020016000205410156104de576040517f08c379a00000000000000000000000000000000000000000000000000000000081526004016104d590611345565b60405180910390fd5b61050a7f87ddc9cbf3cd376a51f85986424be04857ab36db5d633d6a2ccb6371a4530ca860001b610108565b6105367f2a40b23808e5c1e31ba773f35d4712e0c16b03f67942c944174ae943b64e37b560001b610108565b6105627fd39796f435bd39e008ef47e851dff7b4b51e88dca5c7b4285b480bbba142334260001b610108565b8060008061056e61109f565b73ffffffffffffffffffffffffffffffffffffffff1673ffffffffffffffffffffffffffffffffffffffff16815260200190815260200160002060008473ffffffffffffffffffffffffffffffffffffffff1673ffffffffffffffffffffffffffffffffffffffff168152602001908152602001600020546105f091906113cc565b6000806105fb61109f565b73ffffffffffffffffffffffffffffffffffffffff1673ffffffffffffffffffffffffffffffffffffffff16815260200190815260200160002060008473ffffffffffffffffffffffffffffffffffffffff1673ffffffffffffffffffffffffffffffffffffffff168152602001908152602001600020819055506106a27ffb56c1851b8d49e882ee2898cc11873e0aaff96f4b358ff99f79d7f79edfc42c60001b610108565b6106ce7ffa05fab38fc166651d826c4c269cc9965279f1543bad448f0772c39d0a4b199d60001b610108565b8173ffffffffffffffffffffffffffffffffffffffff1663a9059cbb6106f261109f565b836040518363ffffffff1660e01b81526004016107109291906112bc565b602060405180830381600087803b15801561072a57600080fd5b505af115801561073e573d6000803e3d6000fd5b505050506040513d601f19601f8201168201806040525081019061076291906110fb565b5061078f7f53d73050128ca9f8dc46e880fc3472527009a14049e3771b4bab5c48976d8cb960001b610108565b6107bb7fba32a5e6369714456145350c2de84dd84d6b4e6b2a15ead713415e5e612c1dcb60001b610108565b7f2968a9df266ef120c45ab761538d9a5c084c33618aa102bc2f12b050f63f322d6107e461109f565b826040516107f39291906112bc565b60405180910390a15050565b61082b7ffc123d1ac92d90a3f3d96722306f320f1235bb4beb2c7585fc43aa89e5c1914660001b610108565b6108577f3c6218d37e13b539d45d72d1067618ffb146cf98a73f21377c5d99b196c9266f60001b610108565b6108837fa23a63d8cb22e3c7edf876bf931b0a8ca16b88033c8e9a3dc6442d4ccb54d16960001b610108565b6108af7fc181dfaabf4e05eaf7cad33bd9697909d0978371ea7dec15ef319a75d62193ae60001b610108565b600081116108f2576040517f08c379a00000000000000000000000000000000000000000000000000000000081526004016108e990611325565b60405180910390fd5b61091e7f0d166a29a29bcb99c4b45f093c5282c40ea7d217fdfac783f82afc5afdd9b13160001b610108565b61094a7fe6f835587462312a85edbc2305f46114d75aa6d2a1d7393d0406383f7e88a6b160001b610108565b6109767f4f86d181eddeb6699d0f6edac3fe6bc779fa43b69dfdae533541ccbf0077870e60001b610108565b6109a27fd0aa44c23e582bdd299b9e532e7a00c0701e698f3faf4cdf32f52667a905498560001b610108565b808273ffffffffffffffffffffffffffffffffffffffff1663dd62ed3e6109c761109f565b306040518363ffffffff1660e01b81526004016109e592919061125c565b60206040518083038186803b1580156109fd57600080fd5b505afa158015610a11573d6000803e3d6000fd5b505050506040513d601f19601f82011682018060405250810190610a359190611189565b1015610a76576040517f08c379a0000000000000000000000000000000000000000000000000000000008152600401610a6d90611305565b60405180910390fd5b610aa27feb8608e5c652ad8193fca64d3ca4a82dcc05c548a9895ab21ae0b8585e76fc7660001b610108565b610ace7f99867552eac723f85923cb24c4ca3db7757509b0688bd33f1aaede4e8cd469d760001b610108565b610afa7f91545eb7636638b5e5eea573e6b8165cf3e6308f961b025b2d41ab661561f4e760001b610108565b8173ffffffffffffffffffffffffffffffffffffffff166323b872dd610b1e61109f565b30846040518463ffffffff1660e01b8152600401610b3e93929190611285565b602060405180830381600087803b158015610b5857600080fd5b505af1158015610b6c573d6000803e3d6000fd5b505050506040513d601f19601f82011682018060405250810190610b9091906110fb565b50610bbd7f2e2cd08f436fec4630e7019d07a0032a538d7abdd6411384c7dfaa8405d562e560001b610108565b610be97f54a06a0575d8fc847934da6345ea540aafff52087ef89bafb93660eedd8c289e60001b610108565b80600080610bf561109f565b73ffffffffffffffffffffffffffffffffffffffff1673ffffffffffffffffffffffffffffffffffffffff16815260200190815260200160002060008473ffffffffffffffffffffffffffffffffffffffff1673ffffffffffffffffffffffffffffffffffffffff16815260200190815260200160002054610c779190611376565b600080610c8261109f565b73ffffffffffffffffffffffffffffffffffffffff1673ffffffffffffffffffffffffffffffffffffffff16815260200190815260200160002060008473ffffffffffffffffffffffffffffffffffffffff1673ffffffffffffffffffffffffffffffffffffffff16815260200190815260200160002081905550610d297f0c24cbe633206110e964e1ff36eac50de37f78a2670badfd62148b486d1c6e0d60001b610108565b610d557fc48a8531c5e252ec381e17fb38a56816b98e573bba722733c9915b08cec68bb960001b610108565b7f19e44d2f9c2332390c029cd0cd05e9c6c8d6784cf2770000a733c12418be2a3f610d7e61109f565b8383604051610d8f93929190611285565b60405180910390a15050565b610dc77f8bf919fb58e4a71fc1e37830fd3cfc246c77da7136d530ba0ce0e0632baf3ae660001b610108565b610df37f1a9a9b74d531f0cd294477d611846fba56cd5e75afbe582052f25ec4a984d2cf60001b610108565b610e1f7f2d62cc1957469eea814605027437d3c93bc1470ea5c2bad08b4d3735e91a7c6160001b610108565b610e4b7f6ec08cce3efd7cb12e4a336a7fae0de91275d410361ba5e4f5364a0fec9a850660001b610108565b8060016000610e5861109f565b73ffffffffffffffffffffffffffffffffffffffff1673ffffffffffffffffffffffffffffffffffffffff168152602001908152602001600020541015610ed4576040517f08c379a0000000000000000000000000000000000000000000000000000000008152600401610ecb90611345565b60405180910390fd5b610f007fd9036209f1b8838cb323433066f356048101eb11cf6da3309d4c5579505799a860001b610108565b610f2c7fb9970c0e4cdd202c8f725474dd40b401d2b6db6baa924b98002bf782bb9db5c560001b610108565b610f587fc580a4436885b11aba4606b08d8b9e319e230868e1ca3e3f5a642eb96b24f79160001b610108565b6000610f6261109f565b9050610f907f2fa60f75961753b8ec9a8cdef3de62e08c05c12bae372a514ce4e557a4a6739360001b610108565b610fbc7f2c1cec6d1b251ed74d7969e5ca8d11342dd8170b75b6d6833e1656a23c0e6dd860001b610108565b8073ffffffffffffffffffffffffffffffffffffffff166108fc839081150290604051600060405180830381858888f19350505050158015611002573d6000803e3d6000fd5b5061102f7fe53d75ee850b86b5418c072058dfc0e9edc0a2f104e0c88c35423faa5b2470de60001b610108565b61105b7f86ba6c8ef8ddf437e85d4453ebe6ed425cae6b32f93fe84dddeea44531de26c360001b610108565b7f2968a9df266ef120c45ab761538d9a5c084c33618aa102bc2f12b050f63f322d61108461109f565b836040516110939291906112bc565b60405180910390a15050565b600033905090565b6000815190506110b68161152d565b92915050565b6000813590506110cb81611544565b92915050565b6000813590506110e08161155b565b92915050565b6000815190506110f58161155b565b92915050565b60006020828403121561110d57600080fd5b600061111b848285016110a7565b91505092915050565b6000806040838503121561113757600080fd5b6000611145858286016110bc565b9250506020611156858286016110d1565b9150509250929050565b60006020828403121561117257600080fd5b6000611180848285016110d1565b91505092915050565b60006020828403121561119b57600080fd5b60006111a9848285016110e6565b91505092915050565b6111bb81611400565b82525050565b60006111ce601283611365565b91506111d982611489565b602082019050919050565b60006111f1601483611365565b91506111fc826114b2565b602082019050919050565b6000611214600e83611365565b915061121f826114db565b602082019050919050565b6000611237601983611365565b915061124282611504565b602082019050919050565b61125681611450565b82525050565b600060408201905061127160008301856111b2565b61127e60208301846111b2565b9392505050565b600060608201905061129a60008301866111b2565b6112a760208301856111b2565b6112b4604083018461124d565b949350505050565b60006040820190506112d160008301856111b2565b6112de602083018461124d565b9392505050565b600060208201905081810360008301526112fe816111c1565b9050919050565b6000602082019050818103600083015261131e816111e4565b9050919050565b6000602082019050818103600083015261133e81611207565b9050919050565b6000602082019050818103600083015261135e8161122a565b9050919050565b600082825260208201905092915050565b600061138182611450565b915061138c83611450565b9250827fffffffffffffffffffffffffffffffffffffffffffffffffffffffffffffffff038211156113c1576113c061145a565b5b828201905092915050565b60006113d782611450565b91506113e283611450565b9250828210156113f5576113f461145a565b5b828203905092915050565b600061140b82611430565b9050919050565b60008115159050919050565b600061142982611400565b9050919050565b600073ffffffffffffffffffffffffffffffffffffffff82169050919050565b6000819050919050565b7f4e487b7100000000000000000000000000000000000000000000000000000000600052601160045260246000fd5b7f43616e206e6f74206c6f636b2030204554480000000000000000000000000000600082015250565b7f4e6f7420656e6f75676820616c6c6f77616e6365000000000000000000000000600082015250565b7f43616e206e6f74206c6f636b2030000000000000000000000000000000000000600082015250565b7f4e6f7420656e6f756768206c6f636b65642062616c616e636500000000000000600082015250565b61153681611412565b811461154157600080fd5b50565b61154d8161141e565b811461155857600080fd5b50565b61156481611450565b811461156f57600080fd5b5056fea2646970667358221220f25f8e367c73d6b0198530930b131198785a3fca04c940541c07a12673da637064736f6c63430008040033",
  "linkReferences": {},
  "deployedLinkReferences": {}
}