{
  "_format": "hh-sol-artifact-1",
  "contractName": "MainEscrow",
  "sourceName": "contracts/MainEscrow.sol",
  "abi": [
    {
      "anonymous": false,
      "inputs": [
        {
          "indexed": false,
          "internalType": "address",
          "name": "sender",
          "type": "address"
        },
        {
          "indexed": false,
          "internalType": "address",
          "name": "escrow",
          "type": "address"
        },
        {
          "indexed": false,
          "internalType": "uint256",
          "name": "amount",
          "type": "uint256"
        }
      ],
      "name": "LockSuccess",
      "type": "event"
    },
    {
      "anonymous": false,
      "inputs": [
        {
          "indexed": false,
          "internalType": "address",
          "name": "sender",
          "type": "address"
        },
        {
          "indexed": false,
          "internalType": "uint256",
          "name": "amount",
          "type": "uint256"
        }
      ],
      "name": "ReleaseSuccess",
      "type": "event"
    },
    {
      "inputs": [
        {
          "internalType": "contract IERC20",
          "name": "token",
          "type": "address"
        },
        {
          "internalType": "uint256",
          "name": "amount",
          "type": "uint256"
        }
      ],
      "name": "lock",
      "outputs": [],
      "stateMutability": "nonpayable",
      "type": "function"
    },
    {
      "inputs": [
        {
          "internalType": "contract IERC20",
          "name": "token",
          "type": "address"
        },
        {
          "internalType": "uint256",
          "name": "amount",
          "type": "uint256"
        }
      ],
      "name": "release",
      "outputs": [],
      "stateMutability": "nonpayable",
      "type": "function"
    }
  ],
  "bytecode": "0x608060405234801561001057600080fd5b50610aa1806100206000396000f3fe608060405234801561001057600080fd5b50600436106100365760003560e01c80630357371d1461003b578063282d3fdf14610057575b600080fd5b610055600480360381019061005091906106b2565b610073565b005b610071600480360381019061006c91906106b2565b610325565b005b8060008061007f61062d565b73ffffffffffffffffffffffffffffffffffffffff1673ffffffffffffffffffffffffffffffffffffffff16815260200190815260200160002060008473ffffffffffffffffffffffffffffffffffffffff1673ffffffffffffffffffffffffffffffffffffffff168152602001908152602001600020541015610138576040517f08c379a000000000000000000000000000000000000000000000000000000000815260040161012f90610867565b60405180910390fd5b8060008061014461062d565b73ffffffffffffffffffffffffffffffffffffffff1673ffffffffffffffffffffffffffffffffffffffff16815260200190815260200160002060008473ffffffffffffffffffffffffffffffffffffffff1673ffffffffffffffffffffffffffffffffffffffff168152602001908152602001600020546101c691906108ee565b6000806101d161062d565b73ffffffffffffffffffffffffffffffffffffffff1673ffffffffffffffffffffffffffffffffffffffff16815260200190815260200160002060008473ffffffffffffffffffffffffffffffffffffffff1673ffffffffffffffffffffffffffffffffffffffff168152602001908152602001600020819055508173ffffffffffffffffffffffffffffffffffffffff1663095ea7b361027061062d565b836040518363ffffffff1660e01b815260040161028e9291906107fe565b602060405180830381600087803b1580156102a857600080fd5b505af11580156102bc573d6000803e3d6000fd5b505050506040513d601f19601f820116820180604052508101906102e09190610689565b507f2968a9df266ef120c45ab761538d9a5c084c33618aa102bc2f12b050f63f322d61030a61062d565b826040516103199291906107fe565b60405180910390a15050565b60008111610368576040517f08c379a000000000000000000000000000000000000000000000000000000000815260040161035f90610847565b60405180910390fd5b808273ffffffffffffffffffffffffffffffffffffffff1663dd62ed3e61038d61062d565b306040518363ffffffff1660e01b81526004016103ab92919061079e565b60206040518083038186803b1580156103c357600080fd5b505afa1580156103d7573d6000803e3d6000fd5b505050506040513d601f19601f820116820180604052508101906103fb91906106ee565b101561043c576040517f08c379a000000000000000000000000000000000000000000000000000000000815260040161043390610827565b60405180910390fd5b8173ffffffffffffffffffffffffffffffffffffffff166323b872dd61046061062d565b30846040518463ffffffff1660e01b8152600401610480939291906107c7565b602060405180830381600087803b15801561049a57600080fd5b505af11580156104ae573d6000803e3d6000fd5b505050506040513d601f19601f820116820180604052508101906104d29190610689565b50806000806104df61062d565b73ffffffffffffffffffffffffffffffffffffffff1673ffffffffffffffffffffffffffffffffffffffff16815260200190815260200160002060008473ffffffffffffffffffffffffffffffffffffffff1673ffffffffffffffffffffffffffffffffffffffff168152602001908152602001600020546105619190610898565b60008061056c61062d565b73ffffffffffffffffffffffffffffffffffffffff1673ffffffffffffffffffffffffffffffffffffffff16815260200190815260200160002060008473ffffffffffffffffffffffffffffffffffffffff1673ffffffffffffffffffffffffffffffffffffffff168152602001908152602001600020819055507f19e44d2f9c2332390c029cd0cd05e9c6c8d6784cf2770000a733c12418be2a3f61061061062d565b3083604051610621939291906107c7565b60405180910390a15050565b600033905090565b60008151905061064481610a26565b92915050565b60008135905061065981610a3d565b92915050565b60008135905061066e81610a54565b92915050565b60008151905061068381610a54565b92915050565b60006020828403121561069b57600080fd5b60006106a984828501610635565b91505092915050565b600080604083850312156106c557600080fd5b60006106d38582860161064a565b92505060206106e48582860161065f565b9150509250929050565b60006020828403121561070057600080fd5b600061070e84828501610674565b91505092915050565b61072081610922565b82525050565b6000610733601483610887565b915061073e826109ab565b602082019050919050565b6000610756600e83610887565b9150610761826109d4565b602082019050919050565b6000610779601983610887565b9150610784826109fd565b602082019050919050565b61079881610972565b82525050565b60006040820190506107b36000830185610717565b6107c06020830184610717565b9392505050565b60006060820190506107dc6000830186610717565b6107e96020830185610717565b6107f6604083018461078f565b949350505050565b60006040820190506108136000830185610717565b610820602083018461078f565b9392505050565b6000602082019050818103600083015261084081610726565b9050919050565b6000602082019050818103600083015261086081610749565b9050919050565b600060208201905081810360008301526108808161076c565b9050919050565b600082825260208201905092915050565b60006108a382610972565b91506108ae83610972565b9250827fffffffffffffffffffffffffffffffffffffffffffffffffffffffffffffffff038211156108e3576108e261097c565b5b828201905092915050565b60006108f982610972565b915061090483610972565b9250828210156109175761091661097c565b5b828203905092915050565b600061092d82610952565b9050919050565b60008115159050919050565b600061094b82610922565b9050919050565b600073ffffffffffffffffffffffffffffffffffffffff82169050919050565b6000819050919050565b7f4e487b7100000000000000000000000000000000000000000000000000000000600052601160045260246000fd5b7f4e6f7420656e6f75676820616c6c6f77616e6365000000000000000000000000600082015250565b7f43616e206e6f74206c6f636b2030000000000000000000000000000000000000600082015250565b7f4e6f7420656e6f756768206c6f636b65642062616c616e636500000000000000600082015250565b610a2f81610934565b8114610a3a57600080fd5b50565b610a4681610940565b8114610a5157600080fd5b50565b610a5d81610972565b8114610a6857600080fd5b5056fea2646970667358221220ecaaf14dfab8faf4624b9e2e72193bd99b77ac1af7bda40c3392b3c031c113e664736f6c63430008040033",
  "linkReferences": {},
  "deployedLinkReferences": {}
}