{
  "_format": "hh-sol-artifact-1",
  "contractName": "SideEscrow",
  "sourceName": "contracts/SideEscrow.sol",
  "abi": [
    {
      "anonymous": false,
      "inputs": [
        {
          "indexed": false,
          "internalType": "address",
          "name": "newToken",
          "type": "address"
        }
      ],
      "name": "AddNewERC20Success",
      "type": "event"
    },
    {
      "anonymous": false,
      "inputs": [
        {
          "indexed": false,
          "internalType": "address",
          "name": "sender",
          "type": "address"
        },
        {
          "indexed": false,
          "internalType": "uint256",
          "name": "amount",
          "type": "uint256"
        }
      ],
      "name": "LockSuccess",
      "type": "event"
    },
    {
      "anonymous": false,
      "inputs": [
        {
          "indexed": true,
          "internalType": "address",
          "name": "previousOwner",
          "type": "address"
        },
        {
          "indexed": true,
          "internalType": "address",
          "name": "newOwner",
          "type": "address"
        }
      ],
      "name": "OwnershipTransferred",
      "type": "event"
    },
    {
      "anonymous": false,
      "inputs": [
        {
          "indexed": false,
          "internalType": "address",
          "name": "to",
          "type": "address"
        },
        {
          "indexed": false,
          "internalType": "uint256",
          "name": "amount",
          "type": "uint256"
        }
      ],
      "name": "ReleaseSuccess",
      "type": "event"
    },
    {
      "inputs": [
        {
          "internalType": "string",
          "name": "name",
          "type": "string"
        },
        {
          "internalType": "string",
          "name": "symbol",
          "type": "string"
        }
      ],
      "name": "addNewERC20",
      "outputs": [],
      "stateMutability": "nonpayable",
      "type": "function"
    },
    {
      "inputs": [
        {
          "internalType": "contract ERC20Burnable",
          "name": "token",
          "type": "address"
        },
        {
          "internalType": "uint256",
          "name": "amount",
          "type": "uint256"
        }
      ],
      "name": "lock",
      "outputs": [],
      "stateMutability": "nonpayable",
      "type": "function"
    },
    {
      "inputs": [],
      "name": "owner",
      "outputs": [
        {
          "internalType": "address",
          "name": "",
          "type": "address"
        }
      ],
      "stateMutability": "view",
      "type": "function"
    },
    {
      "inputs": [
        {
          "internalType": "contract ERC20PresetMinterPauser",
          "name": "token",
          "type": "address"
        },
        {
          "internalType": "address",
          "name": "to",
          "type": "address"
        },
        {
          "internalType": "uint256",
          "name": "amount",
          "type": "uint256"
        }
      ],
      "name": "release",
      "outputs": [],
      "stateMutability": "nonpayable",
      "type": "function"
    },
    {
      "inputs": [],
      "name": "renounceOwnership",
      "outputs": [],
      "stateMutability": "nonpayable",
      "type": "function"
    },
    {
      "inputs": [],
      "name": "supportedTokens",
      "outputs": [
        {
          "internalType": "address[]",
          "name": "",
          "type": "address[]"
        }
      ],
      "stateMutability": "view",
      "type": "function"
    },
    {
      "inputs": [
        {
          "internalType": "address",
          "name": "newOwner",
          "type": "address"
        }
      ],
      "name": "transferOwnership",
      "outputs": [],
      "stateMutability": "nonpayable",
      "type": "function"
    }
  ],
  "bytecode": "0x608060405234801561001057600080fd5b5061002d61002261003260201b60201c565b61003a60201b60201c565b6100fe565b600033905090565b60008060009054906101000a900473ffffffffffffffffffffffffffffffffffffffff169050816000806101000a81548173ffffffffffffffffffffffffffffffffffffffff021916908373ffffffffffffffffffffffffffffffffffffffff1602179055508173ffffffffffffffffffffffffffffffffffffffff168173ffffffffffffffffffffffffffffffffffffffff167f8be0079c531659141344cd1fd0a4f28419497f9722a3daafe3b4186f6b6457e060405160405180910390a35050565b6158ea806200010e6000396000f3fe60806040523480156200001157600080fd5b5060043610620000885760003560e01c80638bfb07c911620000635780638bfb07c914620000d95780638da5cb5b14620000f9578063b002249d146200011b578063f2fde38b146200013d5762000088565b8063282d3fdf146200008d5780632e3e4e9d14620000ad578063715018a614620000cd575b600080fd5b620000ab6004803603810190620000a59190620015fd565b6200015d565b005b620000cb6004803603810190620000c5919062001694565b62000736565b005b620000d762000c4d565b005b620000f76004803603810190620000f191906200163e565b62000cde565b005b6200010362001118565b6040516200011291906200198c565b60405180910390f35b6200012562001141565b60405162000134919062001a03565b60405180910390f35b6200015b6004803603810190620001559190620015d1565b6200125b565b005b816200018c7fd759c5e12b31bbfceaa83bf8bb47b4f43986664791bf9de75213f450302a296660001b6200135f565b620001ba7f94c66470fd4daf1f577b1e5df6bef8d6d88661e542115d6940cfaa9ec93f8f4c60001b6200135f565b620001e87fb09dae6882e7c93e2bb63112ed5b6eb0fd8e0a1931dd6bb055a037e52b98ccd260001b6200135f565b620002167fad3137341a14d78151dd9407e1ae92f4408e7d1f495b6a89fe857524b965356560001b6200135f565b600160008273ffffffffffffffffffffffffffffffffffffffff1673ffffffffffffffffffffffffffffffffffffffff16815260200190815260200160002060009054906101000a900460ff16620002a5576040517f08c379a00000000000000000000000000000000000000000000000000000000081526004016200029c9062001b0c565b60405180910390fd5b620002d37fe84f783ecc7f0df3dbc0186c0eb9321811815729fddda80000bc9a14cec09f2760001b6200135f565b620003017f996f5c6b1f209522b443ac615c1e52aa0a1832d5ccd5d53ff095e1c536d3e2af60001b6200135f565b6200032f7fac75bf13cc99972edc1a71ab51a681f7f50fedc5ba376e9d154bcc894a57d48c60001b6200135f565b6200035d7f412962cd33f494cc931409fd7dd6a23b2c59fbf9d40eb6d8c2740bf6324e867660001b6200135f565b6200038b7faa9c298c981c1cca4dc6b867b73aca4c05951010f48d39b07577df61c7bae4a360001b6200135f565b620003b97f27e20381c8042fc8ecc1c154b2e2b39a51a26dea8d1a2c4ee1669351c57071d060001b6200135f565b60008211620003ff576040517f08c379a0000000000000000000000000000000000000000000000000000000008152600401620003f69062001b2e565b60405180910390fd5b6200042d7f446ecfe0580cd9729bbbe165dfa6e750e1dece6bb655c33e47e41d637bcd8c6f60001b6200135f565b6200045b7f52c6edd5ceff3a1344026226e569bc48ffc7979cf468bf5e327d2a0b7e76221e60001b6200135f565b620004897f16593f26c544ea5f34984143bbb646caa858c5feb7274a5ed7b261dba823f0dd60001b6200135f565b620004b77faeee4f2329dd45aed83ac81ccaba3c11dd459d586642b85fb789a0d679218f2860001b6200135f565b818373ffffffffffffffffffffffffffffffffffffffff1663dd62ed3e620004de62001362565b306040518363ffffffff1660e01b8152600401620004fe929190620019a9565b60206040518083038186803b1580156200051757600080fd5b505afa1580156200052c573d6000803e3d6000fd5b505050506040513d601f19601f8201168201806040525081019062000552919062001707565b101562000596576040517f08c379a00000000000000000000000000000000000000000000000000000000081526004016200058d9062001aea565b60405180910390fd5b620005c47f6b306783b16c79e636bc68a28ce62c14da0aa43ede404236a8b3c95872f198fd60001b6200135f565b620005f27fe4fe44e9d5ab9dadc03e3645b306c72c13c834ff0278f16766beeae68864299160001b6200135f565b620006207f5e8da1d303f410d746ecda95d324ff0a272cdf7fed0cf44bbc6e39d81861014d60001b6200135f565b8273ffffffffffffffffffffffffffffffffffffffff166379cc679033846040518363ffffffff1660e01b81526004016200065d929190620019d6565b600060405180830381600087803b1580156200067857600080fd5b505af11580156200068d573d6000803e3d6000fd5b50505050620006bf7fd87e1775ef347c09598ff60f61b05375ffe57ff4f699b4aa68a6535f0cef54f360001b6200135f565b620006ed7f064958931f65b9f5ae8c609e8c3b671dc687a3201de55418b78519987e53c09360001b6200135f565b7f01c22e2b54c806da81c606e1f5b95710fc778d75f7918d40a2ceb32af22220dd6200071862001362565b8360405162000729929190620019d6565b60405180910390a1505050565b6200074062001362565b73ffffffffffffffffffffffffffffffffffffffff166200076062001118565b73ffffffffffffffffffffffffffffffffffffffff1614620007b9576040517f08c379a0000000000000000000000000000000000000000000000000000000008152600401620007b09062001ac8565b60405180910390fd5b620007e77f6b6b05422916051df67467cd731a98001e33263422faddec402ece38be31e7b060001b6200135f565b620008157f204cc9f02b54b770152153219cf47a72ef039473d23ef8005fe79c5193553e7e60001b6200135f565b620008437ff11f75efbc1a523628f11e627a92802d5919591c13c2629c164f6fda16e1ef9a60001b6200135f565b620008717f7cd4e6fab31800b901b5182778028be89e1d542f9b23ca34f397a6c101f26d1c60001b6200135f565b600060028360405162000885919062001973565b90815260200160405180910390208054620008a09062001cba565b905014620008e5576040517f08c379a0000000000000000000000000000000000000000000000000000000008152600401620008dc9062001aa6565b60405180910390fd5b620009137fba633f10fb3c27639e17031d2ded9b293be42c34dbcdcae5c7fd72981fdd789960001b6200135f565b620009417fc68185756a5ecfd360e7f7c5dba2cf412e8924ed3d4a74c8dbce6c0de8f27fc960001b6200135f565b6200096f7f5b0cdd896d36f36b82ce32671420b80fb8dd9b28859f2985f69ffd327758fcc860001b6200135f565b6000828260405162000981906200142e565b6200098e92919062001a27565b604051809103906000f080158015620009ab573d6000803e3d6000fd5b509050620009dc7f78207633fd8531618612f6024f4491f5f5eef262918585f335c82629575d231c60001b6200135f565b62000a0a7ff81f07c9d6204f7130b2af9c0ec4dd50e7ce412cec2340e688e489f6616f4cfd60001b6200135f565b60018060008373ffffffffffffffffffffffffffffffffffffffff1673ffffffffffffffffffffffffffffffffffffffff16815260200190815260200160002060006101000a81548160ff02191690831515021790555062000a8f7f661cf1c14a39d0b21a7c00f0fcae7cdae4a03ef306a574d566df5030bda3094460001b6200135f565b62000abd7f1acd924f84b46130af7e1dc44e739eda974a616c5c2bafcf0fd92db2c1f9b96160001b6200135f565b8160028460405162000ad0919062001973565b9081526020016040518091039020908051906020019062000af39291906200143c565b5062000b227fe4ca979fe17bada14999e8cd0a1d3a2ed9c860bf8253e6346d977cc486d80e2860001b6200135f565b62000b507f47da1a9cb5dab19c51c0e08afdb8eaf9557d2b36f37131cc12c0f5c7039a232960001b6200135f565b6003819080600181540180825580915050600190039060005260206000200160009091909190916101000a81548173ffffffffffffffffffffffffffffffffffffffff021916908373ffffffffffffffffffffffffffffffffffffffff16021790555062000be17fdd901b40bf18ea8e373cb60d06b06440fb0a025abf40067a881cec1ffc80352260001b6200135f565b62000c0f7fdb5b98b813e109ae6886e90f0c4bce40d4580bc7a5cf7820aecd2b8d5e4ce4b560001b6200135f565b7fe72bc247e2c4449822bc03e4865439807589c445cdc5edd1876a709626ac8dfa8160405162000c4091906200198c565b60405180910390a1505050565b62000c5762001362565b73ffffffffffffffffffffffffffffffffffffffff1662000c7762001118565b73ffffffffffffffffffffffffffffffffffffffff161462000cd0576040517f08c379a000000000000000000000000000000000000000000000000000000000815260040162000cc79062001ac8565b60405180910390fd5b62000cdc60006200136a565b565b8262000d0d7fd759c5e12b31bbfceaa83bf8bb47b4f43986664791bf9de75213f450302a296660001b6200135f565b62000d3b7f94c66470fd4daf1f577b1e5df6bef8d6d88661e542115d6940cfaa9ec93f8f4c60001b6200135f565b62000d697fb09dae6882e7c93e2bb63112ed5b6eb0fd8e0a1931dd6bb055a037e52b98ccd260001b6200135f565b62000d977fad3137341a14d78151dd9407e1ae92f4408e7d1f495b6a89fe857524b965356560001b6200135f565b600160008273ffffffffffffffffffffffffffffffffffffffff1673ffffffffffffffffffffffffffffffffffffffff16815260200190815260200160002060009054906101000a900460ff1662000e26576040517f08c379a000000000000000000000000000000000000000000000000000000000815260040162000e1d9062001b0c565b60405180910390fd5b62000e547fe84f783ecc7f0df3dbc0186c0eb9321811815729fddda80000bc9a14cec09f2760001b6200135f565b62000e827f996f5c6b1f209522b443ac615c1e52aa0a1832d5ccd5d53ff095e1c536d3e2af60001b6200135f565b62000eb07fe9ed707fc4385c3ded87c5e652e36b39c2ce764763efd88618bd2997b9ff13de60001b6200135f565b62000ede7f5471f6144ee2f2a31b7cd92b0394c594571e800b24176d560a5e032e30440cd760001b6200135f565b62000f0c7f5bde89bfa329ae9ad3ebeb4d2d7c3c99adb04eb694699135bb74e77281f4b7d160001b6200135f565b62000f3a7fde89ee2f7ccc47883c31ea17302e4eb325e2f1797821f122b726a14a152cff5a60001b6200135f565b6000821162000f80576040517f08c379a000000000000000000000000000000000000000000000000000000000815260040162000f779062001a62565b60405180910390fd5b62000fae7f0e47fb06e58b070dd55e14977552f700ccd1ee49823a31806f2644670d804af860001b6200135f565b62000fdc7fd163a3453de8fd8dd2d081daa21f744a30db070f412035f8d37bb6d41b98f89660001b6200135f565b6200100a7ffab673d75a72c4851162a7eafe2c3cfa8f0aff09f9bc70957fb24663fa65322860001b6200135f565b8373ffffffffffffffffffffffffffffffffffffffff166340c10f1984846040518363ffffffff1660e01b815260040162001047929190620019d6565b600060405180830381600087803b1580156200106257600080fd5b505af115801562001077573d6000803e3d6000fd5b50505050620010a97f78a98e1542667928091ba23ad2e41b6a81b7954008b177c0831b1d7e3ffd88a160001b6200135f565b620010d77f36267208ea4c8ecc0b45d41e458cf1fc5cee896d2ecbe0b85864d668422aaba260001b6200135f565b7f2968a9df266ef120c45ab761538d9a5c084c33618aa102bc2f12b050f63f322d83836040516200110a929190620019d6565b60405180910390a150505050565b60008060009054906101000a900473ffffffffffffffffffffffffffffffffffffffff16905090565b6060620011717f1c6c912b4c7ad3c5e9a1c3789399bab8063ba702a027c4804e2c68edce466d1660001b6200135f565b6200119f7ffa2a1c7f67bc3d4f7fd58ca54e6262fec98866945543c67092f1a548774e6c6f60001b6200135f565b620011cd7fecd30d38f2685ade8105ead02c1608b8ca0aab382c7c29f71e516f5dfd8012f060001b6200135f565b60038054806020026020016040519081016040528092919081815260200182805480156200125157602002820191906000526020600020905b8160009054906101000a900473ffffffffffffffffffffffffffffffffffffffff1673ffffffffffffffffffffffffffffffffffffffff168152602001906001019080831162001206575b5050505050905090565b6200126562001362565b73ffffffffffffffffffffffffffffffffffffffff166200128562001118565b73ffffffffffffffffffffffffffffffffffffffff1614620012de576040517f08c379a0000000000000000000000000000000000000000000000000000000008152600401620012d59062001ac8565b60405180910390fd5b600073ffffffffffffffffffffffffffffffffffffffff168173ffffffffffffffffffffffffffffffffffffffff16141562001351576040517f08c379a0000000000000000000000000000000000000000000000000000000008152600401620013489062001a84565b60405180910390fd5b6200135c816200136a565b50565b50565b600033905090565b60008060009054906101000a900473ffffffffffffffffffffffffffffffffffffffff169050816000806101000a81548173ffffffffffffffffffffffffffffffffffffffff021916908373ffffffffffffffffffffffffffffffffffffffff1602179055508173ffffffffffffffffffffffffffffffffffffffff168173ffffffffffffffffffffffffffffffffffffffff167f8be0079c531659141344cd1fd0a4f28419497f9722a3daafe3b4186f6b6457e060405160405180910390a35050565b6139728062001f4383390190565b8280546200144a9062001cba565b90600052602060002090601f0160209004810192826200146e5760008555620014ba565b82601f106200148957805160ff1916838001178555620014ba565b82800160010185558215620014ba579182015b82811115620014b95782518255916020019190600101906200149c565b5b509050620014c99190620014cd565b5090565b5b80821115620014e8576000816000905550600101620014ce565b5090565b600062001503620014fd8462001b79565b62001b50565b9050828152602081018484840111156200151c57600080fd5b6200152984828562001c75565b509392505050565b600081359050620015428162001eda565b92915050565b600081359050620015598162001ef4565b92915050565b600081359050620015708162001f0e565b92915050565b600082601f8301126200158857600080fd5b81356200159a848260208601620014ec565b91505092915050565b600081359050620015b48162001f28565b92915050565b600081519050620015cb8162001f28565b92915050565b600060208284031215620015e457600080fd5b6000620015f48482850162001531565b91505092915050565b600080604083850312156200161157600080fd5b6000620016218582860162001548565b92505060206200163485828601620015a3565b9150509250929050565b6000806000606084860312156200165457600080fd5b600062001664868287016200155f565b9350506020620016778682870162001531565b92505060406200168a86828701620015a3565b9150509250925092565b60008060408385031215620016a857600080fd5b600083013567ffffffffffffffff811115620016c357600080fd5b620016d18582860162001576565b925050602083013567ffffffffffffffff811115620016ef57600080fd5b620016fd8582860162001576565b9150509250929050565b6000602082840312156200171a57600080fd5b60006200172a84828501620015ba565b91505092915050565b60006200174183836200174d565b60208301905092915050565b620017588162001c0f565b82525050565b620017698162001c0f565b82525050565b60006200177c8262001bbf565b62001788818562001be2565b9350620017958362001baf565b8060005b83811015620017cc578151620017b0888262001733565b9750620017bd8362001bd5565b92505060018101905062001799565b5085935050505092915050565b6000620017e68262001bca565b620017f2818562001bf3565b93506200180481856020860162001c84565b6200180f8162001d84565b840191505092915050565b6000620018278262001bca565b62001833818562001c04565b93506200184581856020860162001c84565b80840191505092915050565b600062001860600e8362001bf3565b91506200186d8262001d95565b602082019050919050565b60006200188760268362001bf3565b9150620018948262001dbe565b604082019050919050565b6000620018ae601b8362001bf3565b9150620018bb8262001e0d565b602082019050919050565b6000620018d560208362001bf3565b9150620018e28262001e36565b602082019050919050565b6000620018fc60148362001bf3565b9150620019098262001e5f565b602082019050919050565b60006200192360138362001bf3565b9150620019308262001e88565b602082019050919050565b60006200194a600e8362001bf3565b9150620019578262001eb1565b602082019050919050565b6200196d8162001c6b565b82525050565b60006200198182846200181a565b915081905092915050565b6000602082019050620019a360008301846200175e565b92915050565b6000604082019050620019c060008301856200175e565b620019cf60208301846200175e565b9392505050565b6000604082019050620019ed60008301856200175e565b620019fc602083018462001962565b9392505050565b6000602082019050818103600083015262001a1f81846200176f565b905092915050565b6000604082019050818103600083015262001a438185620017d9565b9050818103602083015262001a598184620017d9565b90509392505050565b6000602082019050818103600083015262001a7d8162001851565b9050919050565b6000602082019050818103600083015262001a9f8162001878565b9050919050565b6000602082019050818103600083015262001ac1816200189f565b9050919050565b6000602082019050818103600083015262001ae381620018c6565b9050919050565b6000602082019050818103600083015262001b0581620018ed565b9050919050565b6000602082019050818103600083015262001b278162001914565b9050919050565b6000602082019050818103600083015262001b49816200193b565b9050919050565b600062001b5c62001b6f565b905062001b6a828262001cf0565b919050565b6000604051905090565b600067ffffffffffffffff82111562001b975762001b9662001d55565b5b62001ba28262001d84565b9050602081019050919050565b6000819050602082019050919050565b600081519050919050565b600081519050919050565b6000602082019050919050565b600082825260208201905092915050565b600082825260208201905092915050565b600081905092915050565b600062001c1c8262001c4b565b9050919050565b600062001c308262001c0f565b9050919050565b600062001c448262001c0f565b9050919050565b600073ffffffffffffffffffffffffffffffffffffffff82169050919050565b6000819050919050565b82818337600083830152505050565b60005b8381101562001ca457808201518184015260208101905062001c87565b8381111562001cb4576000848401525b50505050565b6000600282049050600182168062001cd357607f821691505b6020821081141562001cea5762001ce962001d26565b5b50919050565b62001cfb8262001d84565b810181811067ffffffffffffffff8211171562001d1d5762001d1c62001d55565b5b80604052505050565b7f4e487b7100000000000000000000000000000000000000000000000000000000600052602260045260246000fd5b7f4e487b7100000000000000000000000000000000000000000000000000000000600052604160045260246000fd5b6000601f19601f8301169050919050565b7f43616e206e6f74206d696e742030000000000000000000000000000000000000600082015250565b7f4f776e61626c653a206e6577206f776e657220697320746865207a65726f206160008201527f6464726573730000000000000000000000000000000000000000000000000000602082015250565b7f4475706c6963617465206e616d6573206e6f7420616c6c6f7765640000000000600082015250565b7f4f776e61626c653a2063616c6c6572206973206e6f7420746865206f776e6572600082015250565b7f4e6f7420656e6f75676820616c6c6f77616e6365000000000000000000000000600082015250565b7f4e6f7420737570706f7274656420746f6b656e00000000000000000000000000600082015250565b7f43616e206e6f74206c6f636b2030000000000000000000000000000000000000600082015250565b62001ee58162001c0f565b811462001ef157600080fd5b50565b62001eff8162001c23565b811462001f0b57600080fd5b50565b62001f198162001c37565b811462001f2557600080fd5b50565b62001f338162001c6b565b811462001f3f57600080fd5b5056fe60806040523480156200001157600080fd5b5060405162003972380380620039728339818101604052810190620000379190620004ee565b8181816005908051906020019062000051929190620003cc565b5080600690805190602001906200006a929190620003cc565b5050506000600760006101000a81548160ff021916908315150217905550620000ac6000801b620000a06200013660201b60201c565b6200013e60201b60201c565b620000ed7f9f2df0fed2c77648de5860a4cc508cd0818c85b8b8a1ab4ceeef8d981c8956a6620000e16200013660201b60201c565b6200013e60201b60201c565b6200012e7f65d7a28e3265b37a6474929f336521b332c1681b933f6cb9f3376673440d862a620001226200013660201b60201c565b6200013e60201b60201c565b5050620006d1565b600033905090565b6200015082826200015460201b60201c565b5050565b6200016b82826200019c60201b62000dfc1760201c565b6200019781600160008581526020019081526020016000206200028d60201b62000edc1790919060201c565b505050565b620001ae8282620002c560201b60201c565b6200028957600160008084815260200190815260200160002060000160008373ffffffffffffffffffffffffffffffffffffffff1673ffffffffffffffffffffffffffffffffffffffff16815260200190815260200160002060006101000a81548160ff0219169083151502179055506200022e6200013660201b60201c565b73ffffffffffffffffffffffffffffffffffffffff168173ffffffffffffffffffffffffffffffffffffffff16837f2f8788117e7eff1d82e926ec794901d17c78024a50270940304540a733656f0d60405160405180910390a45b5050565b6000620002bd836000018373ffffffffffffffffffffffffffffffffffffffff1660001b6200032f60201b60201c565b905092915050565b600080600084815260200190815260200160002060000160008373ffffffffffffffffffffffffffffffffffffffff1673ffffffffffffffffffffffffffffffffffffffff16815260200190815260200160002060009054906101000a900460ff16905092915050565b6000620003438383620003a960201b60201c565b6200039e578260000182908060018154018082558091505060019003906000526020600020016000909190919091505582600001805490508360010160008481526020019081526020016000208190555060019050620003a3565b600090505b92915050565b600080836001016000848152602001908152602001600020541415905092915050565b828054620003da90620005f6565b90600052602060002090601f016020900481019282620003fe57600085556200044a565b82601f106200041957805160ff19168380011785556200044a565b828001600101855582156200044a579182015b82811115620004495782518255916020019190600101906200042c565b5b5090506200045991906200045d565b5090565b5b80821115620004785760008160009055506001016200045e565b5090565b6000620004936200048d846200058a565b62000561565b905082815260208101848484011115620004ac57600080fd5b620004b9848285620005c0565b509392505050565b600082601f830112620004d357600080fd5b8151620004e58482602086016200047c565b91505092915050565b600080604083850312156200050257600080fd5b600083015167ffffffffffffffff8111156200051d57600080fd5b6200052b85828601620004c1565b925050602083015167ffffffffffffffff8111156200054957600080fd5b6200055785828601620004c1565b9150509250929050565b60006200056d62000580565b90506200057b82826200062c565b919050565b6000604051905090565b600067ffffffffffffffff821115620005a857620005a762000691565b5b620005b382620006c0565b9050602081019050919050565b60005b83811015620005e0578082015181840152602081019050620005c3565b83811115620005f0576000848401525b50505050565b600060028204905060018216806200060f57607f821691505b6020821081141562000626576200062562000662565b5b50919050565b6200063782620006c0565b810181811067ffffffffffffffff8211171562000659576200065862000691565b5b80604052505050565b7f4e487b7100000000000000000000000000000000000000000000000000000000600052602260045260246000fd5b7f4e487b7100000000000000000000000000000000000000000000000000000000600052604160045260246000fd5b6000601f19601f8301169050919050565b61329180620006e16000396000f3fe608060405234801561001057600080fd5b50600436106101c45760003560e01c806370a08231116100f9578063a457c2d711610097578063d539139311610071578063d53913931461052d578063d547741f1461054b578063dd62ed3e14610567578063e63ab1e914610597576101c4565b8063a457c2d71461049d578063a9059cbb146104cd578063ca15c873146104fd576101c4565b80639010d07c116100d35780639010d07c1461040157806391d148541461043157806395d89b4114610461578063a217fddf1461047f576101c4565b806370a08231146103ab57806379cc6790146103db5780638456cb59146103f7576101c4565b8063313ce567116101665780633f4ba83a116101405780633f4ba83a1461034b57806340c10f191461035557806342966c68146103715780635c975abb1461038d576101c4565b8063313ce567146102e157806336568abe146102ff578063395093511461031b576101c4565b806318160ddd116101a257806318160ddd1461024757806323b872dd14610265578063248a9ca3146102955780632f2ff15d146102c5576101c4565b806301ffc9a7146101c957806306fdde03146101f9578063095ea7b314610217575b600080fd5b6101e360048036038101906101de9190612363565b6105b5565b6040516101f0919061277b565b60405180910390f35b61020161062f565b60405161020e91906127b1565b60405180910390f35b610231600480360381019061022c9190612286565b6106c1565b60405161023e919061277b565b60405180910390f35b61024f6106e4565b60405161025c9190612a13565b60405180910390f35b61027f600480360381019061027a9190612237565b6106ee565b60405161028c919061277b565b60405180910390f35b6102af60048036038101906102aa91906122c2565b61071d565b6040516102bc9190612796565b60405180910390f35b6102df60048036038101906102da91906122eb565b61073c565b005b6102e9610765565b6040516102f69190612a2e565b60405180910390f35b610319600480360381019061031491906122eb565b61076e565b005b61033560048036038101906103309190612286565b6107f1565b604051610342919061277b565b60405180910390f35b61035361089b565b005b61036f600480360381019061036a9190612286565b610915565b005b61038b6004803603810190610386919061238c565b610993565b005b6103956109a7565b6040516103a2919061277b565b60405180910390f35b6103c560048036038101906103c091906121d2565b6109be565b6040516103d29190612a13565b60405180910390f35b6103f560048036038101906103f09190612286565b610a07565b005b6103ff610a27565b005b61041b60048036038101906104169190612327565b610aa1565b6040516104289190612760565b60405180910390f35b61044b600480360381019061044691906122eb565b610ad0565b604051610458919061277b565b60405180910390f35b610469610b3a565b60405161047691906127b1565b60405180910390f35b610487610bcc565b6040516104949190612796565b60405180910390f35b6104b760048036038101906104b29190612286565b610bd3565b6040516104c4919061277b565b60405180910390f35b6104e760048036038101906104e29190612286565b610cbd565b6040516104f4919061277b565b60405180910390f35b610517600480360381019061051291906122c2565b610ce0565b6040516105249190612a13565b60405180910390f35b610535610d04565b6040516105429190612796565b60405180910390f35b610565600480360381019061056091906122eb565b610d28565b005b610581600480360381019061057c91906121fb565b610d51565b60405161058e9190612a13565b60405180910390f35b61059f610dd8565b6040516105ac9190612796565b60405180910390f35b60007f5a05180f000000000000000000000000000000000000000000000000000000007bffffffffffffffffffffffffffffffffffffffffffffffffffffffff1916827bffffffffffffffffffffffffffffffffffffffffffffffffffffffff19161480610628575061062782610f0c565b5b9050919050565b60606005805461063e90612c3c565b80601f016020809104026020016040519081016040528092919081815260200182805461066a90612c3c565b80156106b75780601f1061068c576101008083540402835291602001916106b7565b820191906000526020600020905b81548152906001019060200180831161069a57829003601f168201915b5050505050905090565b6000806106cc610f86565b90506106d9818585610f8e565b600191505092915050565b6000600454905090565b6000806106f9610f86565b9050610706858285611159565b6107118585856111e5565b60019150509392505050565b6000806000838152602001908152602001600020600101549050919050565b6107458261071d565b61075681610751610f86565b611469565b6107608383611506565b505050565b60006012905090565b610776610f86565b73ffffffffffffffffffffffffffffffffffffffff168173ffffffffffffffffffffffffffffffffffffffff16146107e3576040517f08c379a00000000000000000000000000000000000000000000000000000000081526004016107da906129b3565b60405180910390fd5b6107ed828261153a565b5050565b6000806107fc610f86565b9050610890818585600360008673ffffffffffffffffffffffffffffffffffffffff1673ffffffffffffffffffffffffffffffffffffffff16815260200190815260200160002060008973ffffffffffffffffffffffffffffffffffffffff1673ffffffffffffffffffffffffffffffffffffffff1681526020019081526020016000205461088b9190612a70565b610f8e565b600191505092915050565b6108cc7f65d7a28e3265b37a6474929f336521b332c1681b933f6cb9f3376673440d862a6108c7610f86565b610ad0565b61090b576040517f08c379a000000000000000000000000000000000000000000000000000000000815260040161090290612853565b60405180910390fd5b61091361156e565b565b6109467f9f2df0fed2c77648de5860a4cc508cd0818c85b8b8a1ab4ceeef8d981c8956a6610941610f86565b610ad0565b610985576040517f08c379a000000000000000000000000000000000000000000000000000000000815260040161097c906128f3565b60405180910390fd5b61098f8282611610565b5050565b6109a461099e610f86565b82611771565b50565b6000600760009054906101000a900460ff16905090565b6000600260008373ffffffffffffffffffffffffffffffffffffffff1673ffffffffffffffffffffffffffffffffffffffff168152602001908152602001600020549050919050565b610a1982610a13610f86565b83611159565b610a238282611771565b5050565b610a587f65d7a28e3265b37a6474929f336521b332c1681b933f6cb9f3376673440d862a610a53610f86565b610ad0565b610a97576040517f08c379a0000000000000000000000000000000000000000000000000000000008152600401610a8e90612973565b60405180910390fd5b610a9f61194a565b565b6000610ac882600160008681526020019081526020016000206119ed90919063ffffffff16565b905092915050565b600080600084815260200190815260200160002060000160008373ffffffffffffffffffffffffffffffffffffffff1673ffffffffffffffffffffffffffffffffffffffff16815260200190815260200160002060009054906101000a900460ff16905092915050565b606060068054610b4990612c3c565b80601f0160208091040260200160405190810160405280929190818152602001828054610b7590612c3c565b8015610bc25780601f10610b9757610100808354040283529160200191610bc2565b820191906000526020600020905b815481529060010190602001808311610ba557829003601f168201915b5050505050905090565b6000801b81565b600080610bde610f86565b90506000600360008373ffffffffffffffffffffffffffffffffffffffff1673ffffffffffffffffffffffffffffffffffffffff16815260200190815260200160002060008673ffffffffffffffffffffffffffffffffffffffff1673ffffffffffffffffffffffffffffffffffffffff16815260200190815260200160002054905083811015610ca4576040517f08c379a0000000000000000000000000000000000000000000000000000000008152600401610c9b90612993565b60405180910390fd5b610cb18286868403610f8e565b60019250505092915050565b600080610cc8610f86565b9050610cd58185856111e5565b600191505092915050565b6000610cfd60016000848152602001908152602001600020611a07565b9050919050565b7f9f2df0fed2c77648de5860a4cc508cd0818c85b8b8a1ab4ceeef8d981c8956a681565b610d318261071d565b610d4281610d3d610f86565b611469565b610d4c838361153a565b505050565b6000600360008473ffffffffffffffffffffffffffffffffffffffff1673ffffffffffffffffffffffffffffffffffffffff16815260200190815260200160002060008373ffffffffffffffffffffffffffffffffffffffff1673ffffffffffffffffffffffffffffffffffffffff16815260200190815260200160002054905092915050565b7f65d7a28e3265b37a6474929f336521b332c1681b933f6cb9f3376673440d862a81565b610e068282610ad0565b610ed857600160008084815260200190815260200160002060000160008373ffffffffffffffffffffffffffffffffffffffff1673ffffffffffffffffffffffffffffffffffffffff16815260200190815260200160002060006101000a81548160ff021916908315150217905550610e7d610f86565b73ffffffffffffffffffffffffffffffffffffffff168173ffffffffffffffffffffffffffffffffffffffff16837f2f8788117e7eff1d82e926ec794901d17c78024a50270940304540a733656f0d60405160405180910390a45b5050565b6000610f04836000018373ffffffffffffffffffffffffffffffffffffffff1660001b611a1c565b905092915050565b60007f7965db0b000000000000000000000000000000000000000000000000000000007bffffffffffffffffffffffffffffffffffffffffffffffffffffffff1916827bffffffffffffffffffffffffffffffffffffffffffffffffffffffff19161480610f7f5750610f7e82611a8c565b5b9050919050565b600033905090565b600073ffffffffffffffffffffffffffffffffffffffff168373ffffffffffffffffffffffffffffffffffffffff161415610ffe576040517f08c379a0000000000000000000000000000000000000000000000000000000008152600401610ff590612953565b60405180910390fd5b600073ffffffffffffffffffffffffffffffffffffffff168273ffffffffffffffffffffffffffffffffffffffff16141561106e576040517f08c379a000000000000000000000000000000000000000000000000000000000815260040161106590612873565b60405180910390fd5b80600360008573ffffffffffffffffffffffffffffffffffffffff1673ffffffffffffffffffffffffffffffffffffffff16815260200190815260200160002060008473ffffffffffffffffffffffffffffffffffffffff1673ffffffffffffffffffffffffffffffffffffffff168152602001908152602001600020819055508173ffffffffffffffffffffffffffffffffffffffff168373ffffffffffffffffffffffffffffffffffffffff167f8c5be1e5ebec7d5bd14f71427d1e84f3dd0314c0f7b2291e5b200ac8c7c3b9258360405161114c9190612a13565b60405180910390a3505050565b60006111658484610d51565b90507fffffffffffffffffffffffffffffffffffffffffffffffffffffffffffffffff81146111df57818110156111d1576040517f08c379a00000000000000000000000000000000000000000000000000000000081526004016111c890612893565b60405180910390fd5b6111de8484848403610f8e565b5b50505050565b600073ffffffffffffffffffffffffffffffffffffffff168373ffffffffffffffffffffffffffffffffffffffff161415611255576040517f08c379a000000000000000000000000000000000000000000000000000000000815260040161124c90612933565b60405180910390fd5b600073ffffffffffffffffffffffffffffffffffffffff168273ffffffffffffffffffffffffffffffffffffffff1614156112c5576040517f08c379a00000000000000000000000000000000000000000000000000000000081526004016112bc906127f3565b60405180910390fd5b6112d0838383611af6565b6000600260008573ffffffffffffffffffffffffffffffffffffffff1673ffffffffffffffffffffffffffffffffffffffff16815260200190815260200160002054905081811015611357576040517f08c379a000000000000000000000000000000000000000000000000000000000815260040161134e906128b3565b60405180910390fd5b818103600260008673ffffffffffffffffffffffffffffffffffffffff1673ffffffffffffffffffffffffffffffffffffffff1681526020019081526020016000208190555081600260008573ffffffffffffffffffffffffffffffffffffffff1673ffffffffffffffffffffffffffffffffffffffff16815260200190815260200160002060008282546113ec9190612a70565b925050819055508273ffffffffffffffffffffffffffffffffffffffff168473ffffffffffffffffffffffffffffffffffffffff167fddf252ad1be2c89b69c2b068fc378daa952ba7f163c4a11628f55a4df523b3ef846040516114509190612a13565b60405180910390a3611463848484611b06565b50505050565b6114738282610ad0565b611502576114988173ffffffffffffffffffffffffffffffffffffffff166014611b0b565b6114a68360001c6020611b0b565b6040516020016114b7929190612726565b6040516020818303038152906040526040517f08c379a00000000000000000000000000000000000000000000000000000000081526004016114f991906127b1565b60405180910390fd5b5050565b6115108282610dfc565b6115358160016000858152602001908152602001600020610edc90919063ffffffff16565b505050565b6115448282611e05565b6115698160016000858152602001908152602001600020611ee690919063ffffffff16565b505050565b6115766109a7565b6115b5576040517f08c379a00000000000000000000000000000000000000000000000000000000081526004016115ac90612813565b60405180910390fd5b6000600760006101000a81548160ff0219169083151502179055507f5db9ee0a495bf2e6ff9c91a7834c1ba4fdd244a5e8aa4e537bd38aeae4b073aa6115f9610f86565b6040516116069190612760565b60405180910390a1565b600073ffffffffffffffffffffffffffffffffffffffff168273ffffffffffffffffffffffffffffffffffffffff161415611680576040517f08c379a0000000000000000000000000000000000000000000000000000000008152600401611677906129d3565b60405180910390fd5b61168c60008383611af6565b806004600082825461169e9190612a70565b9250508190555080600260008473ffffffffffffffffffffffffffffffffffffffff1673ffffffffffffffffffffffffffffffffffffffff16815260200190815260200160002060008282546116f49190612a70565b925050819055508173ffffffffffffffffffffffffffffffffffffffff16600073ffffffffffffffffffffffffffffffffffffffff167fddf252ad1be2c89b69c2b068fc378daa952ba7f163c4a11628f55a4df523b3ef836040516117599190612a13565b60405180910390a361176d60008383611b06565b5050565b600073ffffffffffffffffffffffffffffffffffffffff168273ffffffffffffffffffffffffffffffffffffffff1614156117e1576040517f08c379a00000000000000000000000000000000000000000000000000000000081526004016117d890612913565b60405180910390fd5b6117ed82600083611af6565b6000600260008473ffffffffffffffffffffffffffffffffffffffff1673ffffffffffffffffffffffffffffffffffffffff16815260200190815260200160002054905081811015611874576040517f08c379a000000000000000000000000000000000000000000000000000000000815260040161186b90612833565b60405180910390fd5b818103600260008573ffffffffffffffffffffffffffffffffffffffff1673ffffffffffffffffffffffffffffffffffffffff1681526020019081526020016000208190555081600460008282546118cc9190612b20565b92505081905550600073ffffffffffffffffffffffffffffffffffffffff168373ffffffffffffffffffffffffffffffffffffffff167fddf252ad1be2c89b69c2b068fc378daa952ba7f163c4a11628f55a4df523b3ef846040516119319190612a13565b60405180910390a361194583600084611b06565b505050565b6119526109a7565b15611992576040517f08c379a0000000000000000000000000000000000000000000000000000000008152600401611989906128d3565b60405180910390fd5b6001600760006101000a81548160ff0219169083151502179055507f62e78cea01bee320cd4e420270b5ea74000d11b0c9f74754ebdbfc544b05a2586119d6610f86565b6040516119e39190612760565b60405180910390a1565b60006119fc8360000183611f16565b60001c905092915050565b6000611a1582600001611f67565b9050919050565b6000611a288383611f78565b611a81578260000182908060018154018082558091505060019003906000526020600020016000909190919091505582600001805490508360010160008481526020019081526020016000208190555060019050611a86565b600090505b92915050565b60007f01ffc9a7000000000000000000000000000000000000000000000000000000007bffffffffffffffffffffffffffffffffffffffffffffffffffffffff1916827bffffffffffffffffffffffffffffffffffffffffffffffffffffffff1916149050919050565b611b01838383611f9b565b505050565b505050565b606060006002836002611b1e9190612ac6565b611b289190612a70565b67ffffffffffffffff811115611b67577f4e487b7100000000000000000000000000000000000000000000000000000000600052604160045260246000fd5b6040519080825280601f01601f191660200182016040528015611b995781602001600182028036833780820191505090505b5090507f300000000000000000000000000000000000000000000000000000000000000081600081518110611bf7577f4e487b7100000000000000000000000000000000000000000000000000000000600052603260045260246000fd5b60200101907effffffffffffffffffffffffffffffffffffffffffffffffffffffffffffff1916908160001a9053507f780000000000000000000000000000000000000000000000000000000000000081600181518110611c81577f4e487b7100000000000000000000000000000000000000000000000000000000600052603260045260246000fd5b60200101907effffffffffffffffffffffffffffffffffffffffffffffffffffffffffffff1916908160001a90535060006001846002611cc19190612ac6565b611ccb9190612a70565b90505b6001811115611db7577f3031323334353637383961626364656600000000000000000000000000000000600f861660108110611d33577f4e487b7100000000000000000000000000000000000000000000000000000000600052603260045260246000fd5b1a60f81b828281518110611d70577f4e487b7100000000000000000000000000000000000000000000000000000000600052603260045260246000fd5b60200101907effffffffffffffffffffffffffffffffffffffffffffffffffffffffffffff1916908160001a905350600485901c945080611db090612c12565b9050611cce565b5060008414611dfb576040517f08c379a0000000000000000000000000000000000000000000000000000000008152600401611df2906127d3565b60405180910390fd5b8091505092915050565b611e0f8282610ad0565b15611ee257600080600084815260200190815260200160002060000160008373ffffffffffffffffffffffffffffffffffffffff1673ffffffffffffffffffffffffffffffffffffffff16815260200190815260200160002060006101000a81548160ff021916908315150217905550611e87610f86565b73ffffffffffffffffffffffffffffffffffffffff168173ffffffffffffffffffffffffffffffffffffffff16837ff6391f5c32d9c69d2a47ea670b442974b53935d1edc7fd64eb21e047a839171b60405160405180910390a45b5050565b6000611f0e836000018373ffffffffffffffffffffffffffffffffffffffff1660001b611ff3565b905092915050565b6000826000018281548110611f54577f4e487b7100000000000000000000000000000000000000000000000000000000600052603260045260246000fd5b9060005260206000200154905092915050565b600081600001805490509050919050565b600080836001016000848152602001908152602001600020541415905092915050565b611fa6838383612179565b611fae6109a7565b15611fee576040517f08c379a0000000000000000000000000000000000000000000000000000000008152600401611fe5906129f3565b60405180910390fd5b505050565b6000808360010160008481526020019081526020016000205490506000811461216d5760006001826120259190612b20565b905060006001866000018054905061203d9190612b20565b90508181146120f8576000866000018281548110612084577f4e487b7100000000000000000000000000000000000000000000000000000000600052603260045260246000fd5b90600052602060002001549050808760000184815481106120ce577f4e487b7100000000000000000000000000000000000000000000000000000000600052603260045260246000fd5b90600052602060002001819055508387600101600083815260200190815260200160002081905550505b85600001805480612132577f4e487b7100000000000000000000000000000000000000000000000000000000600052603160045260246000fd5b600190038181906000526020600020016000905590558560010160008681526020019081526020016000206000905560019350505050612173565b60009150505b92915050565b505050565b60008135905061218d816131ff565b92915050565b6000813590506121a281613216565b92915050565b6000813590506121b78161322d565b92915050565b6000813590506121cc81613244565b92915050565b6000602082840312156121e457600080fd5b60006121f28482850161217e565b91505092915050565b6000806040838503121561220e57600080fd5b600061221c8582860161217e565b925050602061222d8582860161217e565b9150509250929050565b60008060006060848603121561224c57600080fd5b600061225a8682870161217e565b935050602061226b8682870161217e565b925050604061227c868287016121bd565b9150509250925092565b6000806040838503121561229957600080fd5b60006122a78582860161217e565b92505060206122b8858286016121bd565b9150509250929050565b6000602082840312156122d457600080fd5b60006122e284828501612193565b91505092915050565b600080604083850312156122fe57600080fd5b600061230c85828601612193565b925050602061231d8582860161217e565b9150509250929050565b6000806040838503121561233a57600080fd5b600061234885828601612193565b9250506020612359858286016121bd565b9150509250929050565b60006020828403121561237557600080fd5b6000612383848285016121a8565b91505092915050565b60006020828403121561239e57600080fd5b60006123ac848285016121bd565b91505092915050565b6123be81612b54565b82525050565b6123cd81612b66565b82525050565b6123dc81612b72565b82525050565b60006123ed82612a49565b6123f78185612a54565b9350612407818560208601612bdf565b61241081612ccc565b840191505092915050565b600061242682612a49565b6124308185612a65565b9350612440818560208601612bdf565b80840191505092915050565b6000612459602083612a54565b915061246482612cdd565b602082019050919050565b600061247c602383612a54565b915061248782612d06565b604082019050919050565b600061249f601483612a54565b91506124aa82612d55565b602082019050919050565b60006124c2602283612a54565b91506124cd82612d7e565b604082019050919050565b60006124e5603983612a54565b91506124f082612dcd565b604082019050919050565b6000612508602283612a54565b915061251382612e1c565b604082019050919050565b600061252b601d83612a54565b915061253682612e6b565b602082019050919050565b600061254e602683612a54565b915061255982612e94565b604082019050919050565b6000612571601083612a54565b915061257c82612ee3565b602082019050919050565b6000612594603683612a54565b915061259f82612f0c565b604082019050919050565b60006125b7602183612a54565b91506125c282612f5b565b604082019050919050565b60006125da602583612a54565b91506125e582612faa565b604082019050919050565b60006125fd602483612a54565b915061260882612ff9565b604082019050919050565b6000612620603783612a54565b915061262b82613048565b604082019050919050565b6000612643601783612a65565b915061264e82613097565b601782019050919050565b6000612666602583612a54565b9150612671826130c0565b604082019050919050565b6000612689601183612a65565b91506126948261310f565b601182019050919050565b60006126ac602f83612a54565b91506126b782613138565b604082019050919050565b60006126cf601f83612a54565b91506126da82613187565b602082019050919050565b60006126f2602a83612a54565b91506126fd826131b0565b604082019050919050565b61271181612bc8565b82525050565b61272081612bd2565b82525050565b600061273182612636565b915061273d828561241b565b91506127488261267c565b9150612754828461241b565b91508190509392505050565b600060208201905061277560008301846123b5565b92915050565b600060208201905061279060008301846123c4565b92915050565b60006020820190506127ab60008301846123d3565b92915050565b600060208201905081810360008301526127cb81846123e2565b905092915050565b600060208201905081810360008301526127ec8161244c565b9050919050565b6000602082019050818103600083015261280c8161246f565b9050919050565b6000602082019050818103600083015261282c81612492565b9050919050565b6000602082019050818103600083015261284c816124b5565b9050919050565b6000602082019050818103600083015261286c816124d8565b9050919050565b6000602082019050818103600083015261288c816124fb565b9050919050565b600060208201905081810360008301526128ac8161251e565b9050919050565b600060208201905081810360008301526128cc81612541565b9050919050565b600060208201905081810360008301526128ec81612564565b9050919050565b6000602082019050818103600083015261290c81612587565b9050919050565b6000602082019050818103600083015261292c816125aa565b9050919050565b6000602082019050818103600083015261294c816125cd565b9050919050565b6000602082019050818103600083015261296c816125f0565b9050919050565b6000602082019050818103600083015261298c81612613565b9050919050565b600060208201905081810360008301526129ac81612659565b9050919050565b600060208201905081810360008301526129cc8161269f565b9050919050565b600060208201905081810360008301526129ec816126c2565b9050919050565b60006020820190508181036000830152612a0c816126e5565b9050919050565b6000602082019050612a286000830184612708565b92915050565b6000602082019050612a436000830184612717565b92915050565b600081519050919050565b600082825260208201905092915050565b600081905092915050565b6000612a7b82612bc8565b9150612a8683612bc8565b9250827fffffffffffffffffffffffffffffffffffffffffffffffffffffffffffffffff03821115612abb57612aba612c6e565b5b828201905092915050565b6000612ad182612bc8565b9150612adc83612bc8565b9250817fffffffffffffffffffffffffffffffffffffffffffffffffffffffffffffffff0483118215151615612b1557612b14612c6e565b5b828202905092915050565b6000612b2b82612bc8565b9150612b3683612bc8565b925082821015612b4957612b48612c6e565b5b828203905092915050565b6000612b5f82612ba8565b9050919050565b60008115159050919050565b6000819050919050565b60007fffffffff0000000000000000000000000000000000000000000000000000000082169050919050565b600073ffffffffffffffffffffffffffffffffffffffff82169050919050565b6000819050919050565b600060ff82169050919050565b60005b83811015612bfd578082015181840152602081019050612be2565b83811115612c0c576000848401525b50505050565b6000612c1d82612bc8565b91506000821415612c3157612c30612c6e565b5b600182039050919050565b60006002820490506001821680612c5457607f821691505b60208210811415612c6857612c67612c9d565b5b50919050565b7f4e487b7100000000000000000000000000000000000000000000000000000000600052601160045260246000fd5b7f4e487b7100000000000000000000000000000000000000000000000000000000600052602260045260246000fd5b6000601f19601f8301169050919050565b7f537472696e67733a20686578206c656e67746820696e73756666696369656e74600082015250565b7f45524332303a207472616e7366657220746f20746865207a65726f206164647260008201527f6573730000000000000000000000000000000000000000000000000000000000602082015250565b7f5061757361626c653a206e6f7420706175736564000000000000000000000000600082015250565b7f45524332303a206275726e20616d6f756e7420657863656564732062616c616e60008201527f6365000000000000000000000000000000000000000000000000000000000000602082015250565b7f45524332305072657365744d696e7465725061757365723a206d75737420686160008201527f76652070617573657220726f6c6520746f20756e706175736500000000000000602082015250565b7f45524332303a20617070726f766520746f20746865207a65726f20616464726560008201527f7373000000000000000000000000000000000000000000000000000000000000602082015250565b7f45524332303a20696e73756666696369656e7420616c6c6f77616e6365000000600082015250565b7f45524332303a207472616e7366657220616d6f756e742065786365656473206260008201527f616c616e63650000000000000000000000000000000000000000000000000000602082015250565b7f5061757361626c653a2070617573656400000000000000000000000000000000600082015250565b7f45524332305072657365744d696e7465725061757365723a206d75737420686160008201527f7665206d696e74657220726f6c6520746f206d696e7400000000000000000000602082015250565b7f45524332303a206275726e2066726f6d20746865207a65726f2061646472657360008201527f7300000000000000000000000000000000000000000000000000000000000000602082015250565b7f45524332303a207472616e736665722066726f6d20746865207a65726f20616460008201527f6472657373000000000000000000000000000000000000000000000000000000602082015250565b7f45524332303a20617070726f76652066726f6d20746865207a65726f2061646460008201527f7265737300000000000000000000000000000000000000000000000000000000602082015250565b7f45524332305072657365744d696e7465725061757365723a206d75737420686160008201527f76652070617573657220726f6c6520746f207061757365000000000000000000602082015250565b7f416363657373436f6e74726f6c3a206163636f756e7420000000000000000000600082015250565b7f45524332303a2064656372656173656420616c6c6f77616e63652062656c6f7760008201527f207a65726f000000000000000000000000000000000000000000000000000000602082015250565b7f206973206d697373696e6720726f6c6520000000000000000000000000000000600082015250565b7f416363657373436f6e74726f6c3a2063616e206f6e6c792072656e6f756e636560008201527f20726f6c657320666f722073656c660000000000000000000000000000000000602082015250565b7f45524332303a206d696e7420746f20746865207a65726f206164647265737300600082015250565b7f45524332305061757361626c653a20746f6b656e207472616e7366657220776860008201527f696c652070617573656400000000000000000000000000000000000000000000602082015250565b61320881612b54565b811461321357600080fd5b50565b61321f81612b72565b811461322a57600080fd5b50565b61323681612b7c565b811461324157600080fd5b50565b61324d81612bc8565b811461325857600080fd5b5056fea26469706673582212204e21036a9fc1d518f689db0653aa7eba7887b806f02d1c7cbaae1248c775f0b264736f6c63430008040033a2646970667358221220ff097cb2805ebd39c76f26318551b6aa1b1de05dfbafdd94e860bff0e9b6c8c964736f6c63430008040033",
  "linkReferences": {},
  "deployedLinkReferences": {}
}